:020000040800F2
:10000000000002208D160008E9070008EB07000831
:10001000ED070008EF070008F107000800000000E6
:10002000000000000000000000000000F3070008CE
:10003000F507000800000000F7070008F9070008AE
:10004000DD160008DD160008DD160008DD160008C4
:10005000DD160008DD160008DD160008DD160008B4
:10006000DD160008DD160008DD160008DD160008A4
:10007000DD160008DD160008DD160008DD16000894
:10008000DD160008DD160008DD160008000000007F
:10009000000000000000000000000000DD16000865
:1000A000DD160008DD160008DD160008DD16000864
:1000B000DD160008DD160008DD160008DD16000854
:1000C000DD160008DD160008DD160008DD16000844
:1000D000DD160008DD160008DD160008000000002F
:1000E000DD160008DD160008DD160008000000001F
:1000F000000000000000000000000000DD16000805
:1001000000000000DD160008DD160008DD160008FE
:1001100000000000000000000000000000000000DF
:10012000DD160008DD160008DD160008DD160008E3
:10013000DD160008000000000000000000000000C4
:10014000000000000000000000000000DD160008B4
:10015000DD160008DD160008DD160008DD160008B3
:10016000DD160008DD160008000000000000000099
:10017000000000000000000000000000000000007F
:1001800000000000DD160008000000000000000074
:08019000DD160008DD16000871
:100198000348044B834202D0034B03B1184770470E
:1001A8000C0000200C000020000000000548064B51
:1001B8001B1AD90F01EBA301491002D0034B03B15D
:1001C800184770470C0000200C00002000000000B9
:1001D80010B5064C237843B9FFF7DAFF044B13B187
:1001E8000448AFF300800123237010BD0C000020E9
:1001F800000000003817000808B5044B1BB104497B
:100208000448AFF30080BDE80840CFE700000000D5
:10021800100000203817000853B94AB9002908BF50
:1002280000281CBF4FF0FF314FF0FF3000F088B9B5
:10023800ADF1080C6DE904CE00F006F8DDF804E035
:10024800DDE9022304B070472DE9F047089D0F4609
:1002580004468C46002B48D18A42164661D9B2FA28
:1002680082F34BB1C3F1200201FA03FC20FA02F237
:100278009E4042EA0C0C9C404FEA164EB7B2BCFBBB
:10028800FEF1220C0EFB11CC42EA0C4201FB07F0F6
:10029800904209D9B21801F1FF3C80F0EE809042FB
:1002A80040F2EB8002393244121AA4B2B2FBFEF0DB
:1002B8000EFB102244EA024400FB07F7A74209D9C3
:1002C800341900F1FF3280F0DA80A74240F2D7807B
:1002D8003444023840EA0140E41B00211DB1DC40EF
:1002E8000023C5E90043BDE8F0878B4206D90DB16C
:1002F800C5E9000100210846BDE8F087B3FA83F19B
:10030800002948D1BB4202D3824200F20781841AF5
:1003180067EB030201209446002DE4D0C5E9004CA8
:10032800E1E7002A00F09280B2FA82F3002B40F055
:10033800A8808A1A4FEA164E1FFA86FC0121200C63
:10034800B2FBFEF70EFB172240EA02420CFB07F055
:10035800904207D9B21807F1FF3802D2904200F252
:10036800E2804746121AA4B2B2FBFEF00EFB10223E
:1003780044EA02440CFB00FCA44507D9341900F1F7
:10038800FF3202D2A44500F2CB801046A4EB0C0445
:1003980040EA0740A2E7C1F120068B4022FA06FC9A
:1003A8004CEA030C07FA01F420FA06F3F7404FEA87
:1003B8001C49234300FA01F81FFA8CFEB7FBF9F039
:1003C8001C0C09FB107744EA074400FB0EF7A74210
:1003D80002FA01F20AD91CEB040400F1FF3A80F09A
:1003E8009B80A74240F2988002386444E41B9FB285
:1003F800B4FBF9F309FB134447EA044403FB0EFE7C
:10040800A64509D91CEB040403F1FF3780F082806C
:10041800A6457FD9023B644443EA0040A4EB0E049E
:10042800A0FB02E7BC427346B94663D360D05DB116
:10043800B8EB030264EB090404FA06F622FA01F3A6
:100448001E43CC40C5E9006400214CE76208480817
:1004580042EAC1710B0C43EA00438AB242EA034202
:10046800B3FBF6F1E407B4463746B6461F23B0FBA4
:10047800F6F0D21B41EA004161E7614614E71046F5
:1004880028E7C3F1200120FA01F29E4027FA01F182
:100498009F403A434FEA164E1FFA86FCB1FBFEF71F
:1004A8000EFB1710110C41EA004107FB0CF88845B8
:1004B80004FA03F43AD9711807F1FF3001D28845DC
:1004C8001FD8A1EB0801B1FBFEF808FB0CF70EFBE7
:1004D800181192B242EA0142BA422FD2B21808F178
:1004E800FF31C6D2BA42C4D2A8F102013244C0E7F1
:1004F800F0459CD2BEEB020367EB0C070138B94606
:1005080095E7A6EB08084144B81EB1FBFEF808FBC6
:100518000CF7DCE73B467FE7504667E70846FBE613
:100528003444023832E7023F32441BE7A1EB0801AA
:100538003846B1FBFEF808FB0CF7C8E7414698E7D8
:10054800704700BF72B6FEE710B594B008AC302211
:100558000021204601F0BFF800230393049305937C
:10056800069307930193184A116C41F08051116466
:10057800126C02F080520192019A0293134A116898
:1005880041F440411160126802F440420292029A1A
:100598000222089201220B9210220C920E932046FE
:1005A80000F0E2FA60B90F2303930021049105914A
:1005B8000691079103A800F027FD18B914B010BDE3
:1005C800FFF7C0FFFFF7BEFF003802400070004091
:1005D80000B583B0084B1B68ADF804301B0C8DF8D0
:1005E800063000F061FFFFF7AFFF00F007F800F0FA
:1005F80039F800F0A1F8FEE75017000870B588B088
:1006080003AD00240394049405940694079401947C
:10061800124B1A6B42F001021A631A6B02F00102C4
:100628000192019A02941A6B42F002021A631B6B40
:1006380003F002030293029B094E2246072130462B
:1006480000F09CFE0723039301230493059406946A
:100658002946304600F0AEFD08B070BD00380240B3
:100668000004024000B585B0002300930193029373
:1006780003931448144A026043608360036103765D
:1006880080F82030C362114A8262C3600122C261CD
:1006980080F83030426100F065F968B904230093AE
:1006A80001230193002302936946064800F086F966
:1006B80028B905B05DF804FBFFF744FFEEE7FFF744
:1006C80041FFF6E728000020002001400100000F4C
:1006D80000B589B000230393049305930693079309
:1006E800026803F1804303F590339A4202D009B0BF
:1006F8005DF804FB0021019103F58C335A6C42F438
:1007080080725A645A6C02F480720192019A0291C2
:100718001A6B42F001021A631B6B03F00103029388
:10072800029B302303930323049303A9014800F099
:1007380041FDDCE70000024008B50A480A4B0360A7
:100748004FF4E133436000238360C36003610C22EC
:1007580042618361C36100F05BFF00B908BDFFF728
:10076800F1FEFBE7700000200010014000B589B0E1
:10077800002303930493059306930793026803F1F8
:10078800804303F588339A4202D009B05DF804FB30
:100798000021019103F594335A6C42F010025A6417
:1007A8005A6C02F010020192019A02911A6B42F0FF
:1007B80001021A631B6B03F001030293029B4FF4BF
:1007C800C063039302230493032306930723079329
:1007D80003A9024800F0EEFCD7E700BF0000024082
:1007E800FEE7FEE7FEE7FEE7FEE770477047704763
:1007F80008B500F073FE08BD82B0002100910B4BD4
:100808005A6C42F480425A645A6C02F48042009254
:10081800009A01911A6C42F080521A641B6C03F022
:1008280080530193019B02B0704700BF003802401B
:100838004A4B5A6822F440325A605A6841680A435F
:100848005A600268536823F48073536002685368DF
:10085800016943EA012353600268536823F0407337
:1008680053600268536881680B4353600268936859
:1008780023F40063936002689368C1680B43936034
:10088800826A374B9A4257D00268936823F07063A4
:10089800936002689368816A0B4393600268936867
:1008A80023F04053936002689368C16A0B439360D6
:1008B8000268936823F00203936002689368017EDC
:1008C80043EA4103936090F82030002B3FD0026840
:1008D800536843F4006353600268536823F4604329
:1008E800536001684B68426A013A43EA42334B60FD
:1008F8000268D36A23F47003D3620168CB6AC269C1
:10090800013A43EA0253CB620268936823F4007306
:1009180093600268936890F8301043EA412393602B
:100928000268936823F4806393600268936841695E
:1009380043EA8123936070470268936823F07063E9
:1009480093600268936823F040539360B0E70268AD
:10095800536823F400635360CAE700BF00230140D3
:100968000100000F38B310B50446036C43B1236C83
:1009780013F0100F0BD00120002384F83C3010BD79
:10098800FFF7A6FE0023636484F83C30EFE7236C8E
:1009980023F4885323F0020343F002032364204620
:1009A800FFF746FF00206064236C23F0030343F045
:1009B80001032364E0E701207047000030B482B0EF
:1009C8000022019290F83C20012A00F0C0800346E2
:1009D800012280F83C200A68092A40D90468E068A6
:1009E80092B202EB42021E3A4FF0070C0CFA02F2E6
:1009F80020EA0202E2601C68E0680A8802EB420210
:100A08001E3A8D6805FA02F20243E2604A68062A35
:100A18003CD81C68606B02EB8202053A4FF01F0C51
:100A28000CFA02F220EA020262631C68606B4A68F0
:100A380002EB8202053AB1F800C00CFA02F2024356
:100A480062631868434A904250D01868414A9042FD
:100A580059D0002083F83C0002B030BC70470468CD
:100A6800206992B202EB42024FF0070C0CFA02F234
:100A780020EA020222611C6820690A8802EB42020D
:100A88008D6805FA02F202432261BFE70C2A16D8E4
:100A98001D68286B02EB8202233A1F2404FA02F233
:100AA80020EA02022A631D68286B4A6802EB820268
:100AB800233A0C8804FA02F202432A63C1E71D684C
:100AC800E86A02EB8202413A1F2404FA02F220EAA1
:100AD8000202EA621D68E86A4A6802EB8202413A49
:100AE8000C8804FA02F20243EA62AAE70A68122AA8
:100AF800ABD1194A506820F400005060506840F4A7
:100B080080005060A1E70A681448824201D0112A87
:100B18009FD1114A506820F480005060506840F41A
:100B28000000506009680D4A914292D10C4A12683F
:100B38000C49A1FB0212920C02EB820252000192B4
:100B4800019A002A85D0019A013A0192F8E7022019
:100B580082E700BF0020014000230140120000107E
:100B68000800002083DE1B43002800F0E08170B5F8
:100B780082B00446036813F0010F3BD09F4B9B687B
:100B880003F00C03042B2CD09C4B9B6803F00C0344
:100B9800082B21D06368B3F5803F4FD0B3F5A02F61
:100BA80052D0964B1A6822F480321A601A6822F4DE
:100BB80080221A606368002B50D000F09BFC054629
:100BC8008E4B1B6813F4003F14D100F093FC401BBC
:100BD8006428F5D90320B1E1884B5B6813F4800FD2
:100BE800D8D0864B1B6813F4003F03D06368002BF2
:100BF80000F09F81236813F0020F54D07F4B9B684D
:100C080013F00C0F3ED07D4B9B6803F00C03082BB0
:100C180033D0E368002B68D0794B01221A6000F0CA
:100C280069FC0546754B1B6813F0020F54D100F0A0
:100C380061FC401B0228F5D903207FE16F4A136845
:100C480043F480331360B5E76C4B1A6842F4802292
:100C58001A601A6842F480321A60ABE700F04AFC66
:100C68000546664B1B6813F4003FC3D000F042FCF6
:100C7800401B6428F5D9032060E1604B5B6813F4DE
:100C8800800FC6D15D4B1B6813F0020F03D0E368D9
:100C9800012B40F05081594A136823F0F803216969
:100CA80043EAC1031360236813F0080F42D0636955
:100CB8006BB3534B0122C3F8802E00F01BFC054692
:100CC8004E4B5B6F13F0020F34D100F013FC401B46
:100CD8000228F5D9032031E1484A136823F0F803C4
:100CE800216943EAC1031360DDE7454B00221A601E
:100CF80000F000FC0546414B1B6813F0020FD2D0F0
:100D080000F0F8FB401B0228F5D9032016E13C4B04
:100D18000022C3F8802E00F0EDFB0546374B5B6FD1
:100D280013F0020F06D000F0E5FB401B0228F5D9AE
:100D3800032003E1236813F0040F77D02F4B1B6CBB
:100D480013F0805F33D1002301932C4B1A6C42F0CF
:100D580080521A641B6C03F080530193019B012598
:100D6800284B1B6813F4807F23D0A368012B34D051
:100D7800052B38D0214B1A6F22F001021A671A6F1F
:100D880022F004021A67A368002B3DD000F0B2FBE2
:100D980006461A4B1B6F13F0020F46D100F0AAFB50
:100DA800801B41F288339842F3D90320C6E000251E
:100DB800D6E7144A136843F48073136000F09AFB73
:100DC8000646104B1B6813F4807FCED100F092FBCF
:100DD800801B0228F5D90320B0E0084A136F43F0BE
:100DE80001031367CFE7054B1A6F42F004021A6735
:100DF8001A6F42F001021A67C5E700BF00380240C7
:100E0800000047420070004000F074FB0646524B59
:100E18001B6F13F0020F08D000F06CFB801B41F22F
:100E280088339842F3D9032088E0EDB9A369002BF1
:100E380000F08380484A926802F00C02082A51D0D8
:100E4800022B17D0454B00221A6600F053FB0446CC
:100E5800414B1B6813F0007F42D000F04BFB001B96
:100E68000228F5D9032069E03B4A136C23F080532C
:100E78001364DBE7394B00221A6600F03BFB05469A
:100E8800354B1B6813F0007F06D000F033FB401B86
:100E98000228F5D9032051E0E369226A1343626A04
:100EA80043EA8213A26A5208013A43EA0243E26A19
:100EB80043EA0263284A5360284B01221A6600F06D
:100EC80019FB0446244B1B6813F0007F06D100F081
:100ED80011FB001B0228F5D903202FE000202DE08C
:100EE80000202BE0012B2BD01B4B5B6803F4800107
:100EF800E269914226D103F03F02216A8A4223D156
:100F0800616A47F6C0721A40B2EB811F1ED103F422
:100F18004031A26A5208013AB1EB024F18D103F0EE
:100F28007063E26AB3EB026F14D1002006E001207F
:100F38007047012002E0012000E0002002B070BDEF
:100F48000120FBE70120F9E70120F7E70120F5E799
:100F58000120F3E70120F1E7003802400000474292
:100F680008B5264B9B6803F00C03042B41D0082BD3
:100F780041D1224B5A6802F03F025B6813F4800F9C
:100F880012D01E4B5968C1F388111D480023A1FBDC
:100F98000001FFF741F9194B5B68C3F301430133C3
:100FA8005B00B0FBF3F008BD144B5868C0F3881021
:100FB8004FEA401CBCEB000C6EEB0E0E4FEA8E1392
:100FC80043EA9C634FEA8C11B1EB0C0163EB0E030F
:100FD800DB0043EA5173C90011EB000C43F1000335
:100FE800990200234FEA8C2041EA9C51FFF714F93B
:100FF800D1E70348D7E70348D5E700BF00380240E8
:1010080040787D010024F400002800F09B8070B532
:101018000D4604464F4B1B6803F007038B4208D26A
:10102800CBB24C4A1370136803F007038B4240F0AD
:101038008B80236813F0020F17D013F0040F04D02D
:10104800454A936843F4E0539360236813F0080F0C
:1010580004D0414A936843F4604393603E4A9368DE
:1010680023F0F003A1680B439360236813F0010F8A
:1010780032D06368012B21D09A1E012A25D9364A1D
:10108800126812F0020F61D033498A6822F0030215
:1010980013438B6000F02EFA06462F4B9B6803F033
:1010A8000C036268B3EB820F16D000F023FA801BA2
:1010B80041F288339842F0D9032042E0264A126868
:1010C80012F4003FE0D101203BE0234A126812F0FD
:1010D800007FD9D1012034E01E4B1B6803F00703C1
:1010E800AB4207D9EAB21B4B1A701B6803F007031F
:1010F800AB422DD1236813F0040F06D0164A93682B
:1011080023F4E053E1680B439360236813F0080F5E
:1011180007D0114A936823F46043216943EAC10365
:101128009360FFF71DFF0C4B9B68C3F303130B4A37
:10113800D35CD8400A4B18600A4B186800F08EF947
:10114800002070BD012070470120FAE70120F8E770
:101158000120F6E7003C0240003802405C17000816
:101168000800002004000020014B1868704700BFE9
:101178000800002008B5FFF7F7FF044B9B68C3F38E
:101188008223034AD35CD84008BD00BF0038024020
:101198005417000808B5FFF7E7FF044B9B68C3F333
:1011A8004233034AD35CD84008BD00BF0038024030
:1011B8005417000800230F2B00F2D78070B582B0B7
:1011C80065E085684FEA430E032404FA0EF425EA25
:1011D8000405CC6804FA0EF42C438460446824EABD
:1011E80002044A68C2F300129A40224342605CE05B
:1011F800DC08083450F8242003F00705AD004FF050
:101208000F0E0EFA05FE22EA0E0E0A69AA4042EAFD
:101218000E0240F824205CE0042200E0002202FADA
:101228000EF22A430234514D45F82420504A94685E
:101238006FEA0C0224EA0C054E6816F4801F01D0F0
:101248004CEA04054A4CA560E46802EA04054E68C5
:1012580016F4001F01D04CEA0405454CE5606468AB
:1012680002EA04054E6816F4003F01D04CEA040572
:101278003F4C6560246822404D6815F4803F01D0DA
:101288004CEA04023A4C226001330F2B6BD801223E
:101298009A400C6804EA020C32EA0404F4D14C685F
:1012A80004F00304013C012C8BD94A6802F00302C4
:1012B800032A09D0C4685D000322AA4024EA020474
:1012C8008A68AA402243C2604A6802F00302022ADE
:1012D8008ED004684FEA430E032202FA0EF224EA83
:1012E80002044A6802F0030202FA0EF22243026084
:1012F8004A6812F4403FC7D0002201921D4A546C3C
:1013080044F480445464526C02F480420192019A7D
:101318009C08A51C154A52F8255003F0030E4FEA05
:101328008E0E0F2202FA0EF225EA0205124A9042A8
:101338003FF474AF02F5806290420ED002F58062ED
:1013480090420CD002F5806290420AD002F5806289
:1013580090423FF461AF072261E701225FE7022272
:101368005DE703225BE702B070BD704700380140BB
:10137800003C014000380240000002400AB181618F
:101388007047090481617047002808DB0901C9B268
:1013980000F1604000F5614080F80013704700F0EC
:1013A8000F000901C9B2014B1954704714ED00E050
:1013B80000B500F00700C0F1070CBCF1040F28BF0E
:1013C8004FF0040C031D062B0FD9C31E4FF0FF3E30
:1013D8000EFA0CF021EA000199400EFA03FE22EA07
:1013E8000E0241EA02005DF804FB0023EEE700006C
:1013F800074AD36823F4E0631B041B0C000200F4C3
:10140800E060034343F0BF6343F40033D3607047A5
:1014180000ED00E010B50446054BD868C0F3022083
:10142800FFF7C6FF01462046FFF7AEFF10BD00BF1D
:1014380000ED00E00138B0F1807F0BD24FF0E023DF
:101448005861054AF02182F823100020986107228C
:101458001A6170470120704700ED00E010B504469E
:101468000E4B1A784FF47A73B3FBF2F30C4A1068F8
:10147800B0FBF3F0FFF7DEFF68B90F2C01D90120AC
:101488000AE0002221464FF0FF30FFF7C3FF054B6B
:101498001C60002000E0012010BD00BF00000020FB
:1014A800080000200400002008B50B4B1A6842F41D
:1014B80000721A601A6842F480621A601A6842F46C
:1014C80080721A600320FFF793FF0F20FFF7C6FF13
:1014D800FFF792F9002008BD003C0240034A11685A
:1014E800034B1B780B441360704700BFB800002003
:1014F80000000020014B1868704700BFB8000020AA
:1015080010B504460268136923F44053C1680B43BD
:101518001361836802691A4343691A43C3691A430A
:101528000168CB6823F4164323F00C031343CB6004
:101538000268536923F4407381690B43536103685C
:10154800314A934206D002F58062934202D0FFF7F7
:1015580011FE01E0FFF71EFEE369B3F5004F29D045
:101568000021031849411B1841F10001C90041EA53
:101578005371DB00181863684FEA83024FEA9373CC
:1015880041F10001FEF748FE204AA2FB003149095B
:10159800642303FB11031B013233A2FB03235B0902
:1015A80003F0F00202EB011203F00F032168134469
:1015B8008B6010BD0023021843EB0301121841F1A0
:1015C8000001C90041EA5271D200101841F100012E
:1015D800626892185B41FEF71FFE0C4AA2FB0031BD
:1015E8004909642303FB1103DB003233A2FB032305
:1015F8005B095A0002F4F87202EB011203F00703C8
:10160800216813448B60D4E7001001401F85EB511B
:1016180060B310B5044690F8413013B3242384F81E
:1016280041302268D36823F40053D3602046FFF783
:1016380067FF2268136923F4904313612268536992
:1016480023F02A0353612268D36843F40053D3601C
:1016580000206064202384F8413084F842306063BD
:1016680010BD80F84030FFF781F8D7E701207047B8
:10167800034AD2F8883043F47003C2F888307047C0
:1016880000ED00E0DFF834D0FFF7F2FF0C480D4919
:101698000D4A002302E0D458C4500433C4188C42C5
:1016A800F9D30A4A0A4C002301E013600432A2422B
:1016B800FBD300F019F8FEF78BFF704700000220FB
:1016C800000000200C0000207C1700080C000020FF
:1016D800BC000020FEE702440346934200D1704755
:1016E80003F8011BF9E7000070B50D4B0D4D5B1BAE
:1016F8009C100026A64209D100F01AF80A4D0B4B9F
:101708005B1B9C100026A64205D170BD55F8043B12
:1017180098470136EEE755F8043B98470136F2E75B
:101728007417000874170008741700087817000861
:10173800F8B500BFF8BC08BC9E467047F8B500BFB6
:08174800F8BC08BC9E46704786
:101750000102030000000000010203040000000079
:0C17600000000000010203040607080955
:08176C00E4EAFF7F0100000028
:041774000102000866
:04177800D90100088B
:0C177C0001000000100000000024F40038
:040000050800168D4C
:00000001FF
