:020000040800F2
:1000000000280020E12C00089D1000089F10000827
:10001000A1100008A3100008A510000800000000AF
:10002000000000000000000000000000A710000811
:10003000A910000800000000AB100008AD10000877
:10004000292D0008292D0008292D0008292D000838
:10005000292D0008292D0008292D0008292D000828
:10006000292D0008292D0008292D0008292D000818
:10007000292D0008292D0008292D0008292D000808
:10008000292D0008292D0008292D0008292D0008F8
:10009000292D0008292D0008292D0008292D0008E8
:1000A000292D0008292D0008292D0008292D0008D8
:1000B000292D0008292D000800000000292D000826
:1000C000292D00080000000000000000292D000874
:1000D00000000000292D0008292D00080000000064
:1000E000292D0008292D0008292D000800000000F6
:1000F0000000000000000000000000000000000000
:0C01000000000000000000005FF808F1A3
:1001100070B54FF0FF0C4CF4E06C1CEA11541DBF9D
:100120001CEA135594EA0C0F95EA0C0F00F0DEF868
:100130002C4481EA030621EA4C5123EA4C5350EA4D
:10014000013518BF52EA033541F4801143F480139E
:1001500038D0A0FB02CE4FF00005E1FB02E506F02F
:100160000042E0FB03E54FF00006E1FB03569CF084
:10017000000F18BF4EF0010EA4F1FF04B6F5007F8A
:1001800064F5407404D25FEA4E0E6D4146EB0606FC
:1001900042EAC62141EA55514FEAC52040EA5E5085
:1001A0004FEACE2EB4F1FD0C88BFBCF5E06F1ED82F
:1001B000BEF1004F08BF5FEA500E50F1000041EB66
:1001C000045170BD06F0004646EA010140EA020013
:1001D00081EA0301B4EB5C04C2BFD4EB0C0541EA35
:1001E000045170BD41F480114FF0000E013C00F34A
:1001F000AB8014F1360FDEBF002001F0004170BD6E
:10020000C4F10004203C35DA0C341BDC04F1140486
:10021000C4F1200500FA05F320FA04F001FA05F212
:1002200040EA020001F0004221F0004110EBD370DF
:1002300021FA04F642EB06015EEA430E08BF20EA0B
:10024000D37070BDC4F10C04C4F1200500FA04F3AE
:1002500020FA05F001FA04F240EA020001F0004140
:1002600010EBD37041F100015EEA430E08BF20EAB3
:10027000D37070BDC4F1200500FA05F24EEA020EFB
:1002800020FA04F301FA05F243EA020321FA04F02A
:1002900001F0004121FA04F220EA020000EBD370E1
:1002A0005EEA430E08BF20EAD37070BD94F0000FE1
:1002B0000FD101F00046400041EB010111F4801F15
:1002C00008BF013CF7D041EA060195F0000F18BFC6
:1002D000704703F00046520043EB030313F4801F02
:1002E00008BF013DF7D043EA0603704794EA0C0FBC
:1002F0000CEA135518BF95EA0C0F0CD050EA4106D2
:1003000018BF52EA4306D1D181EA030101F000414E
:100310004FF0000070BD50EA410606BF1046194676
:1003200052EA430619D094EA0C0F02D150EA013682
:1003300013D195EA0C0F05D152EA03361CBF1046C3
:1003400019460AD181EA030101F0004141F0FE4162
:1003500041F470014FF0000070BD41F0FE4141F4E6
:10036000780170BD81F0004102E000BF83F00043DE
:1003700030B54FEA41044FEA430594EA050F08BF40
:1003800090EA020F1FBF54EA000C55EA020C7FEA04
:10039000645C7FEA655C00F0E2804FEA5454D4EB81
:1003A0005555B8BF6D420CDD2C4480EA020281EA4B
:1003B000030382EA000083EA010180EA020281EA83
:1003C0000303362D88BF30BD11F0004F4FEA0131D5
:1003D0004FF4801C4CEA113102D0404261EB4101E4
:1003E00013F0004F4FEA03334CEA133302D052426A
:1003F00063EB430394EA050F00F0A780A4F1010426
:10040000D5F1200E0DDB02FA0EFC22FA05F280185F
:1004100041F1000103FA0EF2801843FA05F3594145
:100420000EE0A5F120050EF1200E012A03FA0EFCC4
:1004300028BF4CF0020C43FA05F3C01851EBE371EE
:1004400001F0004507D54FF0000EDCF1000C7EEB0B
:1004500000006EEB0101B1F5801F1BD3B1F5001F49
:100460000CD349085FEA30004FEA3C0C04F1010468
:100470004FEA445212F5800F80F09A80BCF1004F91
:1004800008BF5FEA500C50F1000041EB045141EA13
:10049000050130BD5FEA4C0C404141EB0101013CDC
:1004A00028BFB1F5801FE9D291F0000F04BF0146CB
:1004B0000020B1FA81F308BF2033A3F10B03B3F19D
:1004C00020020CDA0C3208DD02F1140CC2F10C022D
:1004D00001FA0CF021FA02F10CE002F11402D8BF8B
:1004E000C2F1200C01FA02F120FA0CFCDCBF41EA57
:1004F0000C019040E41AA2BF01EB0451294330BD26
:100500006FEA04041F3C1CDA0C340EDC04F1140402
:10051000C4F1200220FA04F001FA02F340EA0300D9
:1005200021FA04F345EA030130BDC4F10C04C4F11F
:10053000200220FA02F001FA04F340EA03002946FF
:1005400030BD21FA04F0294630BD94F0000F83F449
:10055000801306BF81F480110134013D4EE77FEA2C
:10056000645C18BF7FEA655C29D094EA050F08BF78
:1005700090EA020F05D054EA000C04BF1946104659
:1005800030BD91EA030F1EBF0021002030BD5FEA9D
:10059000545C05D14000494128BF41F0004130BDC5
:1005A00014F580043CBF01F5801130BD01F0004519
:1005B00045F0FE4141F470014FF0000030BD7FEA8C
:1005C000645C1ABF194610467FEA655C1CBF0B4687
:1005D000024650EA013406BF52EA033591EA030F9E
:1005E00041F4002130BD00BF90F0000F04BF002196
:1005F000704730B54FF4806404F132044FF00005C9
:100600004FF0000150E700BF90F0000F04BF002141
:10061000704730B54FF4806404F1320410F00045A7
:1006200048BF40424FF000013EE700BF42004FEAA2
:10063000E2014FEA31014FEA02701FBF12F07F431F
:1006400093F07F4F81F06051704732F07F4208BFD6
:10065000704793F07F4F04BF41F40021704730B5DD
:100660004FF4607401F0004521F000411CE700BF29
:1006700050EA010208BF704730B54FF000050AE0AC
:1006800050EA010208BF704730B511F0004502D5AD
:10069000404261EB41014FF4806404F132045FEAAF
:1006A000915C3FF4D8AE4FF003025FEADC0C18BF58
:1006B00003325FEADC0C18BF033202EBDC02C2F14A
:1006C000200300FA03FC20FA02F001FA03FE40EADC
:1006D0000E0021FA02F11444BDE600BF4FEA4102C8
:1006E00012F5001215D211D56FF47873B3EB625284
:1006F00012D94FEAC12343F0004343EA505311F0AB
:10070000004F23FA02F018BF404270474FF000003C
:10071000704750EA013005D111F0004008BF6FF07A
:10072000004070474FF00000704700BF80F000406D
:1007300002E000BF81F0004142001FBF5FEA4103B9
:1007400092EA030F7FEA226C7FEA236C6AD04FEAB9
:100750001262D2EB1363C1BFD218414048404140FE
:10076000B8BF5B42192B88BF704710F0004F40F4B0
:10077000000020F07F4018BF404211F0004F41F4CC
:10078000000121F07F4118BF494292EA030F3FD098
:10079000A2F1010241FA03FC10EB0C00C3F12003AB
:1007A00001FA03F100F0004302D5494260EB40003A
:1007B000B0F5000F13D3B0F1807F06D340084FEAA5
:1007C000310102F10102FE2A51D2B1F1004F40EB9A
:1007D000C25008BF20F0010040EA03007047490002
:1007E00040EB0000013A28BFB0F5000FEDD2B0FA9F
:1007F00080FCACF1080CB2EB0C0200FA0CF0AABFC2
:1008000000EBC25052421843BCBFD040184370475F
:1008100092F0000F81F4000106BF80F40000013265
:10082000013BB5E74FEA41037FEA226C18BF7FEA3C
:10083000236C21D092EA030F04D092F0000F08BF7E
:100840000846704790EA010F1CBF0020704712F065
:100850007F4F04D1400028BF40F00040704712F1A4
:1008600000723CBF00F50000704700F0004343F009
:10087000FE4040F4000070477FEA226216BF08463F
:100880007FEA23630146420206BF5FEA412390EA02
:10089000010F40F4800070474FF0000304E000BFF8
:1008A00010F0004348BF40425FEA000C08BF7047A9
:1008B00043F0964301464FF000001CE050EA01026D
:1008C00008BF70474FF000030AE000BF50EA010282
:1008D00008BF704711F0004302D5404261EB41016F
:1008E0005FEA010C02BF84460146002043F0B64394
:1008F00008BFA3F18053A3F50003BCFA8CF2083AB9
:10090000A3EBC25310DB01FA02FC634400FA02FCC1
:10091000C2F12002BCF1004F20FA02F243EB0200C8
:1009200008BF20F00100704702F1200201FA02FC2A
:10093000C2F1200250EA4C0021FA02F243EB02001D
:1009400008BF20EADC7070474FF0FF0C1CEAD05261
:100950001EBF1CEAD15392EA0C0F93EA0C0F6FD022
:100960001A4480EA010C400218BF5FEA41211ED000
:100970004FF0006343EA501043EA5111A0FB0131EC
:100980000CF00040B1F5000F3EBF490041EAD371C1
:100990005B0040EA010062F17F02FD2A1DD8B3F13D
:1009A000004F40EBC25008BF20F00100704790F0AC
:1009B000000F0CF0004C08BF49024CEA502040EAFE
:1009C00051207F3AC2BFD2F1FF0340EAC2507047C4
:1009D00040F400004FF00003013A5DDC12F1190F02
:1009E000DCBF00F000407047C2F10002410021FA74
:1009F00002F1C2F1200200FA02FC5FEA310040F18C
:100A0000000053EA4C0308BF20EADC70704792F004
:100A1000000F00F0004C02BF400010F4000F013A3C
:100A2000F9D040EA0C0093F0000F01F0004C02BF37
:100A3000490011F4000F013BF9D041EA0C018FE7A6
:100A40000CEAD15392EA0C0F18BF93EA0C0F0AD0AC
:100A500030F0004C18BF31F0004CD8D180EA0100D2
:100A600000F00040704790F0000F17BF90F0004F6B
:100A7000084691F0000F91F0004F14D092EA0C0F4D
:100A800001D142020FD193EA0C0F03D14B0218BFE0
:100A9000084608D180EA010000F0004040F0FE4026
:100AA00040F40000704740F0FE4040F440007047C2
:100AB0004FF0FF0C1CEAD0521EBF1CEAD15392EA41
:100AC0000C0F93EA0C0F69D0A2EB030280EA010C31
:100AD00049024FEA402037D04FF0805343EA1111CA
:100AE00043EA10130CF000408B4238BF5B0042F128
:100AF0007D024FF4000C8B4224BF5B1A40EA0C00CD
:100B0000B3EB510F24BFA3EB510340EA5C00B3EBFE
:100B1000910F24BFA3EB910340EA9C00B3EBD10FEC
:100B200024BFA3EBD10340EADC001B0118BF5FEA3E
:100B30001C1CE0D1FD2A3FF650AF8B4240EBC25067
:100B400008BF20F0010070470CF0004C4CEA502028
:100B50007F32C2BFD2F1FF0340EAC250704740F477
:100B600000004FF00003013A37E792F0000F00F069
:100B7000004C02BF400010F4000F013AF9D040EAE7
:100B80000C0093F0000F01F0004C02BF490011F47B
:100B9000000F013BF9D041EA0C0195E70CEAD15373
:100BA00092EA0C0F08D142027FF47DAF93EA0C0F5A
:100BB0007FF470AF084676E793EA0C0F04D14B023E
:100BC0003FF44CAF08466EE730F0004C18BF31F0F0
:100BD000004CCAD130F000427FF45CAF31F00043EA
:100BE0007FF43CAF5FE700BF4FF0FF3C06E000BF83
:100BF0004FF0010C02E000BF4FF0010C4DF804CDA6
:100C00004FEA40024FEA41037FEA226C18BF7FEAB5
:100C1000236C11D001B052EA530C18BF90EA010FB7
:100C200058BFB2EB030088BFC81738BF6FEAE17046
:100C300018BF40F0010070477FEA226C02D15FEAE2
:100C4000402C05D17FEA236CE4D15FEA412CE1D04E
:100C50005DF8040B704700BF844608466146FFE715
:100C60000FB5FFF7C9FF002848BF10F1000F0FBDF7
:100C70004DF808EDFFF7F4FF0CBF012000205DF8F0
:100C800008FB00BF4DF808EDFFF7EAFF34BF012075
:100C900000205DF808FB00BF4DF808EDFFF7E0FF0E
:100CA00094BF012000205DF808FB00BF4DF808ED5F
:100CB000FFF7D2FF94BF012000205DF808FB00BFC2
:100CC0004DF808EDFFF7C8FF34BF012000205DF8A4
:100CD00008FB00BF4FEA4002B2F1FE4F0FD34FF0C6
:100CE0009E03B3EB12620DD94FEA002343F0004399
:100CF00010F0004F23FA02F018BF404270474FF047
:100D00000000704712F1610F01D1420205D110F0CD
:100D1000004008BF6FF0004070474FF00000704780
:100D20000348044B834202D0034B03B1184770477A
:100D30006800002068000020000000000548064B05
:100D40001B1AD90F01EBA301491002D0034B03B1C9
:100D5000184770476800002068000020000000006D
:100D600010B5064C237843B9FFF7DAFF044B13B1F3
:100D70000448AFF300800123237010BD68000020F9
:100D8000000000009C3F000808B5054B1BB1054959
:100D90000548AFF30080BDE80840FFF7CFBF00BFB4
:100DA000000000006C0000209C3F000810B53B28AC
:100DB00027D9A0F13C033B2B37D9A0F178033B2B7B
:100DC00047D9A0F1B4033B2B57D9A0F1F0033B2B3B
:100DD00067D9A0F596733B2B77D83E4C00220821AB
:100DE000204601F0DBF900222021204601F0D6F94F
:100DF00001228021204601F0D1F9374802F0C0F8E5
:100E000012E0344C01220821204601F0C7F90022EB
:100E10002021204601F0C2F901228021204601F064
:100E2000BDF92E4802F0ACF810BD2A4C0122082171
:100E3000204601F0B3F900222021204601F0AEF94E
:100E400000228021204601F0A9F9254802F098F8F7
:100E5000EAE7204C01220821204601F09FF90122F7
:100E60002021204601F09AF900228021204601F03D
:100E700095F91C4802F084F8D6E7164C00220821A8
:100E8000204601F08BF901222021204601F086F94D
:100E900000228021204601F081F9134802F070F809
:100EA000C2E70C4C00220821204601F077F901220C
:100EB0002021204601F072F901228021204601F014
:100EC0006DF90A4802F05CF8AEE70146084801F007
:100ED000EFFFA9E7000C014068400008B43F00089C
:100EE000D83F0008FC3F00082040000844400008AC
:100EF0008C40000800B583B001904FF6FF730122CB
:100F000001A9034801F0F5FA019803B05DF804FB6C
:100F10003401002008B572B6034802F031F86420AD
:100F200000F002FCF8E700BFA040000800B595B053
:100F3000282200210DEB020002F02AF8002305937D
:100F400006930793089309930193029303930493E1
:100F500002230A9301220E9210220F9211934FF452
:100F6000601313930AA800F009FCC8B90F23059376
:100F700002210691002307934FF48062089209939F
:100F800005A800F02DFE68B9022301934FF4004339
:100F9000039301A800F000FF30B915B05DF804FB21
:100FA000FFF7B8FFFFF7B6FFFFF7B4FF0000000040
:100FB0002DE9F04182B000F093FBFFF7B7FF01F09D
:100FC000AFFC01F0FDFC01F029FD01F033FE01F062
:100FD000DFFD19E001224FF400512B4801F0DEF84B
:100FE0002A493846FFF7B0FCFFF774FEA4B2009020
:100FF0002346B2B2A9B2264801F05AFF2046FFF7B5
:10100000D5FE642000F090FB224C204600F01EFA32
:101010004FF0FF31204600F06FF8204600F02EF927
:10102000064687B21C4C204600F010FA4FF0FF3104
:10103000204600F061F8204600F020F905461FFA2E
:1010400080F84046FFF728FC04463846FFF724FCAA
:10105000214602F0FFFD0746FFF7E8FA08A3D3E9AF
:101060000023FFF755F8FFF739FB0446B8F1B40F3A
:10107000B0D800224FF40051034801F08FF8AFE7D9
:10108000F8C1631ADCA54C40001001400000C842C2
:10109000A8400008BC0000208C000020FEE7FEE70E
:1010A000FEE7FEE7FEE770477047704708B500F0BF
:1010B00029FB08BD82B00E4B9A6942F001029A6189
:1010C0009A6902F001020092009ADA6942F08052B5
:1010D000DA61DB6903F080530193019B054A536891
:1010E00023F0E06343F08063536002B0704700BFB9
:1010F0000010024000000140F0B583B005460C46E8
:101100000023019300F00AFB2B689A6812F4807F99
:1011100023D107465A6812F4807F03D1DB6A13F4A7
:10112000700F29D0504B1E68022000F0C1FEB6FBA4
:10113000F0F62B6819694D4A114236D1D96802F18F
:101140005C42114231D11969494A114240D1DA68F1
:10115000484B1A423ED0292341E0AB6A43F02003BA
:10116000AB62002385F82430012003B0F0BD2B686A
:101170001B6813F0020F0FD02B681B6813F0020FCF
:101180004FD1B4F1FF3FF7D0002CF0D000F0C6FAF9
:10119000C31BA342F0D9EAE7AB6A43F00403AB6296
:1011A000002385F824300320DFE71969304A114213
:1011B00004D1D96802F16E4211420DD019692E4A4C
:1011C0000A405AB9DA682C4B13405BB1FC2306E0A5
:1011D000292304E0142302E0542300E0FC2303FB52
:1011E00006F607E05423FAE7019BB34210D3019BB4
:1011F00001330193019BB34213D2B4F1FF3FF6D008
:10120000002CF1D000F08AFAC01BA042EFD9EBE726
:10121000AB6A43F00403AB62002385F8243003205B
:10122000A3E72B686FF012021A60AB6A43F40073F5
:10123000AB622B689B6803F46023B3F5602F01D089
:10124000002092E7287B60B9AB6A23F48073AB621D
:10125000AB6A13F4805F88D1AB6A43F00103AB62E1
:1012600083E7002081E700BF080000202449922482
:101270009224491292244900499224000368D86CB0
:101280007047000030B482B00022019290F8242010
:10129000012A00F08F800346012280F824204A684A
:1012A000062A2DD80468606B02EB8202053A4FF0E3
:1012B0001F0C0CFA02FC20EA0C000D6805FA02F281
:1012C000024362630A68092A38D91C68E06802EBA5
:1012D00042021E3A4FF0070C0CFA02FC20EA0C0006
:1012E0008D6805FA02F20243E2600A68103A012AA8
:1012F00034D90020002283F8242002B030BC70478B
:101300000C2A0DD80568286B02EB8202233A1F24B1
:10131000944020EA04000C68944020432863D1E7FD
:101320000568E86A02EB8202413A1F24944020EAF1
:1013300004000C6894402043E862C3E71C682069FD
:1013400002EB42024FF0070C0CFA02FC20EA0C0000
:101350008D6805FA02F202432261C6E71A68164850
:10136000824205D09A6A42F020029A620120C1E7C7
:10137000906810F4000F1BD1906840F4000090605A
:101380000A68102A01D00020B4E70C4A12680C4900
:10139000A1FB0212920C02EB82025200019202E0C7
:1013A000019A013A0192019A002AF9D10020A1E79D
:1013B00000209FE70220A0E7002401400800002051
:1013C00083DE1B4330B583B00023019303689A6822
:1013D00012F0010F33D104469A6842F001029A607C
:1013E000184B1B68184AA2FB03239B0C019302E0D5
:1013F000019B013B0193019B002BF9D100F08EF979
:10140000054623689B6813F0010F16D100F086F99A
:10141000431B022BF5D923689B6813F0010FF0D111
:10142000A36A43F01003A362E36A43F00103E3629B
:10143000002384F82430012002E0002000E0002096
:1014400003B030BD0800002083DE1B4390F8243039
:10145000012B68D010B50446012380F82430FFF733
:10146000B1FF00285BD1A36A23F4407323F001038A
:1014700043F48073A36223682C4A934227D0A26A64
:1014800022F48012A2625A6812F4806F05D0A26A18
:1014900022F4405242F48052A262A26A12F4805FA7
:1014A0002BD0E26A22F00602E262002284F82420B5
:1014B0006FF002021A6023689A6802F46022B2F5A3
:1014C000602F1DD09A6842F480129A602AE0A2F53B
:1014D0008062526812F4702FD1D0A26A42F4801256
:1014E000A262134A526812F4806FD6D0A26A22F424
:1014F000405242F48052A262CFE70022E262D4E777
:101500000A4A934204D09A6842F4A0029A6009E021
:10151000A2F58062526812F4702FD3D1F3E7002352
:1015200084F8243010BD0220704700BF002801401D
:101530000024014038B503689A6812F0010F01D108
:10154000002038BD04469A6822F001029A6000F03B
:10155000E5F8054623689B6813F0010F13D000F0EF
:10156000DDF8431B022BF5D923689B6813F0010FAC
:10157000F0D0A36A43F01003A362E36A43F00103CF
:10158000E3620120DDE70020DBE7000000287BD0DC
:1015900070B50446836A002B4DD02046FFF7CAFF82
:1015A000A36A13F0100369D1002867D1A26A22F45C
:1015B000885222F0020242F00202A2626268E169ED
:1015C0000A43217B42EA4102A568B5F5807F02D03B
:1015D000012D36D01D46267D012E35D02668716836
:1015E00021F46941294371602568AE68274931407B
:1015F0001143A960A168B1F5807F01D0012902D112
:101600002369013B1B052568E96A21F470010B433E
:10161000EB62236899681E4B0B409A4225D0A36A5F
:1016200023F0120343F01003A362E36A43F00103C3
:10163000E362012027E0C36280F8243001F01CFA45
:10164000ABE74FF48075C6E731B9A169013945EAC6
:10165000413141F40065C1E7A16A41F02001A16276
:10166000E16A41F00101E162B8E70023E362A36AA5
:1016700023F0030343F00103A36204E0A36A43F0F1
:101680001003A362012070BD01207047FDF7E1FF48
:10169000FE0E1FFF10B504460E4B1A784FF47A73F6
:1016A000B3FBF2F30C4A1068B0FBF3F000F0D2FD8C
:1016B00068B90F2C01D901200AE0002221464FF021
:1016C000FF3000F0B7FD054B1C60002000E001205A
:1016D00010BD00BF00000020080000200400002012
:1016E00008B5074A136843F010031360032000F0A5
:1016F0008FFD0F20FFF7CEFFFFF7DCFC002008BDB9
:1017000000200240034A1168034B1B780B4413600E
:10171000704700BF8400002000000020014B1868C3
:10172000704700BF8400002038B50446FFF7F6FF7D
:101730000546B4F1FF3F02D0044B1B781C44FFF771
:10174000EDFF401BA042FAD338BD00BF00000020CF
:1017500082B0084B1B68084AA2FB03235B0A00FB0C
:1017600003F3019300BF019B5A1E0192002BF9D194
:1017700002B0704708000020D34D6210002800F02E
:10178000F18170B582B00446036813F0010F2CD0CC
:10179000994B5B6803F00C03042B1DD0964B5B68E0
:1017A00003F00C03082B12D06368B3F5803F41D0DF
:1017B000002B55D103F1804303F504331A6822F45A
:1017C00080321A601A6822F480221A6037E08A4B4D
:1017D0005B6813F4803FE7D0874B1B6813F4003F2E
:1017E00003D06368002B00F0BF81236813F0020F61
:1017F00075D0814B5B6813F00C0F5FD07E4B5B683C
:1018000003F00C03082B54D02369002B00F08A80CE
:101810007A4B01221A60FFF781FF0546764B1B6861
:1018200013F0020F75D1FFF779FF401B0228F5D99D
:1018300003209EE1704A136843F4803313606368A9
:1018400043B3FFF76BFF05466B4B1B6813F4003F78
:10185000CBD1FFF763FF401B6428F5D9032088E153
:10186000B3F5A02F09D0644B1A6822F480321A60B5
:101870001A6822F480221A60E1E703F18043A3F59D
:101880003C331A6842F480221A601A6842F48032AB
:101890001A60D4E7FFF742FF0546574B1B6813F465
:1018A000003FA2D0FFF73AFF401B6428F5D9032080
:1018B0005FE1514B5B6813F4803FA5D14E4B1B6831
:1018C00013F0020F03D02369012B40F04F814A4AE5
:1018D000136823F0F803616943EAC10313602368C6
:1018E00013F0080F33D0A369002B5CD0434B0122C7
:1018F000C3F88024FFF712FF05463F4B5B6A13F0E5
:10190000020F21D1FFF70AFF401B0228F5D903205F
:101910002FE1394A136823F0F803616943EAC103F0
:101920001360DCE7354B00221A60FFF7F7FE05462F
:10193000314B1B6813F0020FD1D0FFF7EFFE401BB5
:101940000228F5D9032014E10120FFF701FF2368E5
:1019500013F0040F00F09680274BDB6913F0805FD3
:1019600034D1254BDA6942F08052DA61DB6903F049
:1019700080530193019B0125214B1B6813F4807F49
:1019800026D0E368012B3DD0002B53D103F18043D7
:1019900003F504331A6A22F001021A621A6A22F06D
:1019A00004021A6233E0154B0022C3F88024FFF7CB
:1019B000B5FE0546104B5B6A13F0020FC7D0FFF768
:1019C000ADFE401B0228F5D90320D2E00025D3E765
:1019D0000B4A136843F480731360FFF79FFE0646BB
:1019E000074B1B6813F4807FCBD1FFF797FE801B5A
:1019F0006428F5D90320BCE00010024000004242F8
:101A0000007000405F4A136A43F001031362E36809
:101A100033B3FFF783FE06465A4B1B6A13F0020FDF
:101A20002FD1FFF77BFE801B41F288339842F3D918
:101A300003209EE0052B09D0524B1A6A22F00102C6
:101A40001A621A6A22F004021A62E0E74D4B1A6A1F
:101A500042F004021A621A6A42F001021A62D6E7E0
:101A6000FFF75CFE0646474B1B6A13F0020F08D0D7
:101A7000FFF754FE801B41F288339842F3D90320CC
:101A800077E0E5B9E369002B72D03E4A526802F074
:101A90000C02082A56D0022B17D03B4B00221A66A4
:101AA000FFF73CFE0446374B1B6813F0007F47D01E
:101AB000FFF734FE001B0228F5D9032059E0314A14
:101AC000D36923F08053D361DCE72F4B00221A66E1
:101AD000FFF724FE05462B4B1B6813F0007F06D052
:101AE000FFF71CFE401B0228F5D9032041E0236AC2
:101AF000B3F5803F1AD023494B6823F47413226A4C
:101B0000606A024313434B601F4B01221A66FFF7C2
:101B100005FE04461B4B1B6813F0007F0ED1FFF738
:101B2000FDFD001B0228F5D9032022E0154A536869
:101B300023F40033A1680B435360DCE7002018E076
:101B4000002016E0012B16D00E4B5B6803F48031A9
:101B5000226A914211D103F47013626A93420ED14A
:101B6000002006E001207047012002E0012000E093
:101B7000002002B070BD0120FBE70120F9E7012041
:101B8000F7E700BF00100240000042420F4B5B68C5
:101B900003F00C02082A01D00D487047C3F38342BA
:101BA0000C49885C13F4803F0BD0084B5B68C3F38F
:101BB0004043094AD35C064A02FB00F0B0FBF3F055
:101BC0007047064B03FB00F0704700BF0010024057
:101BD00000127A00D8400008D440000800093D00F7
:101BE000002800F0A08070B50D460446524B1B68DB
:101BF00003F007038B420BD24F4A136823F007030D
:101C00000B431360136803F007038B4240F08D8091
:101C1000236813F0020F17D013F0040F04D0474AC3
:101C2000536843F4E0635360236813F0080F04D053
:101C3000424A536843F460535360404A536823F068
:101C4000F003A1680B435360236813F0010F31D0F8
:101C50006368012B20D0022B25D0384A126812F07D
:101C6000020F64D035494A6822F0030213434B60E7
:101C7000FFF754FD0646314B5B6803F00C036268C6
:101C8000B3EB820F16D0FFF749FD801B41F288337A
:101C90009842F0D9032045E0284A126812F4003F28
:101CA000E0D101203EE0254A126812F0007FD9D130
:101CB000012037E0204B1B6803F00703AB420AD931
:101CC0001D4A136823F007032B431360136803F0C6
:101CD0000703AB422DD1236813F0040F06D0174A37
:101CE000536823F4E063E1680B435360236813F007
:101CF000080F07D0114A536823F46053216943EA5F
:101D0000C1035360FFF742FF0C4B5B68C3F303133F
:101D10000B4AD35CD8400B4B18600B4B1868FFF78D
:101D2000B9FC002070BD012070470120FAE70120B6
:101D3000F8E70120F6E700BF002002400010024053
:101D4000044100080800002004000020014B18682E
:101D5000704700BF0800002008B5FFF7F7FF044BED
:101D60005B68C3F30223034AD35CD84008BD00BFBD
:101D700000100240FC40000808B5FFF7E7FF044BE5
:101D80005B68C3F3C223034AD35CD84008BD00BFDD
:101D900000100240FC40000870B582B004460368A1
:101DA00013F0010F36D03F4BDB6913F0805F49D150
:101DB0003C4BDA6942F08052DA61DB6903F0805310
:101DC0000193019B0125384B1B6813F4807F3BD0A6
:101DD000344B1B6A13F4407313D0626802F44072F0
:101DE0009A420ED02F4A136A23F440702F490126DD
:101DF000C1F840640026C1F84064106213F0010F7E
:101E000036D1284A136A23F4407361680B43136286
:101E1000002D3ED1236813F0020F06D0214A5368EB
:101E200023F44043A1680B435360236813F0100F61
:101E300034D01C4A536823F48003E1680B43536099
:101E400000202CE00025BEE7174A136843F4807396
:101E50001360FFF763FC0646134B1B6813F4807F87
:101E6000B6D1FFF75BFC801B6428F5D9032016E090
:101E7000FFF754FC06460B4B1B6A13F0020FC0D150
:101E8000FFF74CFC801B41F288339842F3D90320C2
:101E900005E0D36923F08053D361BBE7002002B093
:101EA00070BD00BF001002400070004000004242C0
:101EB00008B502284ED0102803D0012828D00020D1
:101EC00052E02B4B5A68186810F080704CD0C2F367
:101ED00083432849C85C12F4803F15D0244B5B68CB
:101EE000C3F34043244AD25C244BB3FBF2F303FB1D
:101EF00000F01F4B5B6813F4800F35D14000204B7E
:101F0000A3FB003040082FE01E4B03FB00F0F0E77E
:101F1000174B1B6A40F202321A40B2F5817F24D07F
:101F200003F44073B3F5007F04D0B3F5407F09D0CC
:101F3000002019E00E4A526A12F0020FF5D049F65D
:101F4000404011E00A4B186810F400300CD04FF2FA
:101F5000244009E0FFF710FF054B5B68C3F38133B2
:101F600001335B00B0FBF3F008BD4FF40040FBE72A
:101F700000100240EC400008E840000800127A001F
:101F8000ABAAAAAA00093D0070B582B00024A446FD
:101F900087E07C4DAB4214D00CD8A5F58015AB4240
:101FA0000FD005F57025AB420BD0A5F58015AB42DF
:101FB00012D106E0744DAB4203D005F58035AB423B
:101FC0000AD18B68002B00F0B580012B00F0AD80AA
:101FD0004261082400E0CC68BEF1FF0F00F2AC8043
:101FE00006464FEA8C0233680F25954023EA050325
:101FF00004FA02F2134333604B6813F0805F4ED053
:10200000624B9A6942F001029A619B6903F00103F5
:102010000193019B4FEA9C02951C5D4B53F8256090
:102020000CF00305AD000F23AB4026EA0306594B25
:10203000984200F0888003F58063984200F0858024
:1020400003F5806398427CD00323AB4033430232D4
:102050004F4D45F822304B6813F4801F77D04E4A1D
:10206000936843EA0E0393604B6813F4001F74D027
:10207000494AD36843EA0E03D3604B6813F4003F28
:1020800071D0454A536843EA0E0353604B6813F41A
:10209000803F6ED0404A136843EA0E0313600CF190
:1020A000010C0B6833FA0CF269D0012202FA0CF22F
:1020B00003EA020E32EA0303F1D14B68122B3FF61A
:1020C00068AF122B88D801A555F823F0C31F00086C
:1020D000D71F00081F21000831210008D91F000860
:1020E000D91F0008D91F0008D91F0008D91F0008F0
:1020F000D91F0008D91F0008D91F0008D91F0008E0
:10210000D91F0008D91F0008D91F0008D91F0008CF
:102110001921000825210008CC6804345CE7CC684C
:10212000083459E7CC680C3456E70261082453E7B9
:10213000002451E704244FE7061DACF10802920089
:1021400051E7022381E700237FE701237DE7124A5D
:10215000936823EA0E03936086E70F4AD36823EA65
:102160000E03D36089E70C4A536823EA0E035360D9
:102170008CE7094A136823EA0E0313608FE702B065
:1021800070BD00BF0000221000003110001002409E
:102190000000014000080140000401400AB1016153
:1021A0007047090401617047002808DB0901C9B2C2
:1021B00000F1604000F5614080F80013704700F0C6
:1021C0000F000901C9B2014B1954704714ED00E02A
:1021D00000B500F00700C0F1070CBCF1040F28BFE8
:1021E0004FF0040C031D062B0FD9C31E4FF0FF3E0A
:1021F0000EFA0CF021EA000199400EFA03FE22EAE1
:102200000E0241EA02005DF804FB0023EEE7000045
:10221000074AD36823F4E0631B041B0C000200F49C
:10222000E060034343F0BF6343F40033D36070477F
:1022300000ED00E010B50446054BD868C0F302205D
:10224000FFF7C6FF01462046FFF7AEFF10BD00BFF7
:1022500000ED00E00138B0F1807F0BD24FF0E023B9
:102260005861054AF02182F8231000209861072266
:102270001A6170470120704700ED00E070470000D0
:1022800010B503460C4A0D490D48006840B10C4892
:1022900000680344521A934206D8094A136010BDDD
:1022A0000748084C0460F2E700F07AFE0C23036054
:1022B0004FF0FF30F3E700BF0028002000040000CB
:1022C00088000020C802002070B50C461646002584
:1022D00006E0AFF30080214601F8010B01350C4602
:1022E000B542F6DB304670BD70B50C46164600258B
:1022F00004E014F8010BFEF7FDFD0135B542F8DBF3
:10230000304670BD4FF0FF3070474FF400534B60C4
:10231000002070470120704700207047026802F1DA
:102320000C0353E8003F23F490730C3242E8003171
:102330000029F3D1026802F1140353E8003F23F0AF
:102340000103143242E800310029F3D1036B012B61
:1023500005D0202380F842300023036370470268D1
:1023600002F10C0353E8003F23F010030C3242E863
:1023700000310029F3D1ECE710B504460268136977
:1023800023F44053C1680B4313618368026913430C
:1023900042691A430168CB6823F4B05323F00C035D
:1023A0001343CB600268536923F4407381690B4384
:1023B00053610268134B9A4220D0FFF7CDFC0246CE
:1023C00002EB820202EB820263689B00B2FBF3F233
:1023D0000D48A0FB02314909642303FB11231B01B3
:1023E0003233A0FB03035B0903F0F00202EB01129E
:1023F00003F00F03216813448B6010BDFFF7BCFC92
:102400000246DDE7003801401F85EB512DE9F0431E
:1024100083B005460E4617469946DDF828802B689E
:102420001C6836EA04040CBF01240024BC4228D1F5
:10243000B8F1FF3FF3D0FFF771F9A0EB0900404579
:1024400023D8B8F1000F22D02B68DA6812F0040FFD
:10245000E5D0802EE3D0402EE1D01A6812F0080FAC
:10246000DDD0002401941A6801925B680193019BFE
:102470002846FFF753FF08236B6485F8404001208E
:1024800000E0002003B0BDE8F0830320FAE703205A
:10249000F8E760B310B5044690F8413013B3242335
:1024A00084F841302268D36823F40053D360204677
:1024B000FFF762FF2268136923F4904313612268D7
:1024C000536923F02A0353612268D36843F400530D
:1024D000D36000206064202384F8413084F84230C7
:1024E000606310BD80F8403000F0BEFBD7E70120EC
:1024F00070472DE9F04182B01E4690F84130DBB2C2
:10250000202B56D104460D469046002955D00AB9D5
:1025100001204FE000234364212380F84130FFF77E
:10252000FDF80746A4F82480A4F82680A368B3F534
:10253000805F02D04FF0000814E023692BB34FF006
:1025400000080FE0202384F84130032032E038F8FF
:10255000023B2268C3F308035360E28C92B2013A53
:1025600092B2E284E38C9BB293B100963B46002288
:1025700080212046FFF74AFF0028E3D1002DE6D056
:1025800015F8012B23685A60E7E7A8460025E9E71C
:1025900000963B46002240212046FFF737FF18B93E
:1025A000202384F8413005E0202384F841300320C3
:1025B00000E0022002B0BDE8F0810120FAE700004F
:1025C00030B4026A036A23F0010303624568836939
:1025D00023F073030C681C4322F002028B68134340
:1025E0000B4A904206D0456084614A6842630362A8
:1025F00030BC704723F00803CA681A4322F0040372
:1026000025F440754A692A438D691543EBE700BFFD
:10261000002C014030B4036A026A22F48072026224
:102620004468C26922F073020D68154323F40073F5
:102630008A6843EA02230D4A904206D04460C5618D
:102640004A68C263036230BC704723F40063CA68FF
:1026500043EA022323F4806324F440544A6944EAA1
:1026600002148A6944EA0214E8E700BF002C014022
:1026700030B4036A026A22F4805202624468C2697A
:1026800022F4E6420D6842EA052223F400538D68E5
:1026900043EA0533074DA84206D04460C2614A6848
:1026A0000264036230BC704724F480444D6944EAFC
:1026B0008514F2E7002C014003681B4A904206D0C3
:1026C000B0F1804F03D0A2F59432904203D123F0B1
:1026D00070034A681343144A904206D0B0F1804F09
:1026E00003D0A2F59432904203D123F44073CA6818
:1026F000134323F080034A69134303608B68C3626A
:102700000B688362084B98420AD001234361036936
:1027100013F0010F03D0036923F001030361704735
:102720000B690363F1E700BF002C014040B310B513
:10273000044690F83D30F3B1022384F83D30214641
:1027400051F8040BFFF7B8FF012384F8463084F8F2
:102750003E3084F83F3084F8403084F8413084F8CB
:10276000423084F8433084F8443084F8453084F8AB
:102770003D30002010BD80F83C3000F0CFF9DBE7A1
:102780000120704730B4036A026A22F0100202622C
:102790004468826922F4E6420D6842EA052223F089
:1027A00020038D6843EA05130C4DA84206D044600F
:1027B00082614A688263036230BC704723F0800301
:1027C000CD6843EA051323F0400324F440644D69C7
:1027D00044EA85048D6944EA8504E8E7002C014059
:1027E00038B590F83C30012B66D004460D460123E5
:1027F00080F83C300C2A5AD8DFE802F007595959C2
:102800001B5959593059595944000068FFF7D8FEEF
:102810002268936943F0080393612268936923F067
:10282000040393612268936929690B439361002033
:102830003EE00068FFF7A6FF2268936943F4006357
:1028400093612268936923F480639361226893699A
:10285000296943EA01239361002029E00068FFF71A
:10286000D9FE2268D36943F00803D3612268D36993
:1028700023F00403D3612268D36929690B43D36130
:10288000002015E00068FFF7F3FE2268D36943F4E7
:102890000063D3612268D36923F48063D361226823
:1028A000D369296943EA0123D361002000E00120B4
:1028B000002384F83C3038BD0220FCE790F83C202F
:1028C000012A28D010B40346012280F83C200222BD
:1028D00080F83D2002685068946820F0700C086809
:1028E00040EA0C0050601A680C48824206D0B2F1EF
:1028F000804F03D0A0F59430824204D124F08004AC
:10290000496821439160012283F83D20002083F82B
:102910003C0010BC70470220704700BF002C0140F3
:102920002DE9F04188B0002404940594069407949E
:10293000204B9A6942F010029A619A6902F01002E3
:102940000192019A9A6942F004029A619A6902F02E
:1029500004020292029A9A6942F008029A619B6903
:1029600003F008030393039BDFF84C8022464FF4E7
:1029700000514046FFF712FC104D2246A821284680
:10298000FFF70CFC4FF400530493012705970694BE
:102990000226079604A94046FFF7F6FAA8230493F7
:1029A00005970694079604A92846FFF7EDFA08B0A4
:1029B000BDE8F0810010024000100140000C014011
:1029C00000B585B000230193029303931148124A86
:1029D00002608360037303754FF46022C261436039
:1029E00001230361FEF7D2FD68B90523019301239A
:1029F00002930023039301A90648FEF743FC28B97C
:102A000005B05DF804FBFEF785FAEEE7FEF782FA03
:102A1000F6E700BFBC0000200024014000B585B0EF
:102A200000230193029303931148124A02608360CA
:102A3000037303754FF46022C26143600123036195
:102A4000FEF7A4FD68B90623019301230293002336
:102A5000039301A90648FEF715FC28B905B05DF8F7
:102A600004FBFEF757FAEEE7FEF754FAF6E700BF6D
:102A70008C0000200028014000B589B00023049399
:102A80000593069307930368204A934205D0204A92
:102A900093421ED009B05DF804FB1E4B9A6942F4C4
:102AA00000729A619A6902F400720092009A9A691F
:102AB00042F004029A619B6903F004030193019BB5
:102AC000202304930323059304A91348FFF75CFA1A
:102AD000E0E7104B9A6942F480629A619A6902F4C5
:102AE00080620292029A9A6942F004029A619B699A
:102AF00003F004030393039B4023049303230593F0
:102B000004A90548FFF740FAC4E700BF00240140CC
:102B10000028014000100240000801400368B3F1A2
:102B2000804F00D0704782B003F50433DA6942F079
:102B30000102DA61DB6903F001030193019B02B03A
:102B40007047000000B587B00023029303930493FD
:102B500005930368B3F1804F02D007B05DF804FB22
:102B600003F504339A6942F004029A619B6903F009
:102B700004030193019B072302930223039305930C
:102B800002A90248FFF700FAE7E700BF000801408A
:102B900000B58BB00023089309930193029303932C
:102BA000049305930693079321484FF080420260F7
:102BB000436083604FF6FF72C26003618361FFF779
:102BC000B5FD28BB00230893099308A91848FFF70F
:102BD00075FE00BB602301930022029203920592CE
:102BE00001A91348FFF7FCFDC0B904220DEB020157
:102BF0000F48FFF7F5FDA0B9082201A90C48FFF71F
:102C0000EFFD88B90A48FFF79DFF0BB05DF804FBA4
:102C1000FEF780F9D6E7FEF77DF9DBE7FEF77AF9F4
:102C2000E3E7FEF777F9E7E7FEF774F9EAE700BFB5
:102C3000EC00002008B50A480A4B03604FF4E1336A
:102C4000436000238360C36003610C22426183619F
:102C5000C361FFF71EFC00B908BDFEF75BF9FBE797
:102C6000340100200038014010B586B000230293E3
:102C70000393049305930268174B9A4201D006B060
:102C800010BD03F558439A6942F480429A619A69EB
:102C900002F480420092009A9A6942F004029A611A
:102CA0009B6903F004030193019B4FF400730293AB
:102CB0000223039303230593084C02A92046FFF740
:102CC00063F94FF48063029300230393049302A9F2
:102CD0002046FFF759F9D2E70038014000080140CB
:102CE000FFF7CCFA0B480C490C4A002302E0D458F9
:102CF000C4500433C4188C42F9D3094A094C002348
:102D000001E013600432A242FBD300F04FF9FEF75A
:102D10004FF970470000002068000020884100083B
:102D200068000020C8020020FEE70000002310B564
:102D30000446C0E90033C0E90433836081814366FF
:102D4000C2818361194608225C3000F021F90D4BE5
:102D5000246263620C4BA3620C4BE3620C4B236353
:102D60000C4B9C4206D003F16802944202D0D0334F
:102D70009C4205D104F15800BDE8104000F03AB97A
:102D800010BD00BF45380008673800089F380008AC
:102D9000C33800087C010020024A0349034800F0C0
:102DA00069B800BF0C000020DD3700081C000020BF
:102DB00041680C4B10B59942044601D000F00EFD5D
:102DC000A168094B994202D0204600F007FDE16856
:102DD000064B994204D02046BDE8104000F0FEBCEE
:102DE00010BD00BF7C010020E40100204C02002047
:102DF00010B50B4B0B4C0C4A20461A6004210022E4
:102E0000FFF794FF04F1680001220921FFF78EFF0C
:102E100004F1D0000222BDE810401221FFF786BF66
:102E2000B40200207C010020992D0008014800F028
:102E3000E2B800BFB9020020014800F0DDB800BFD1
:102E4000B902002010B50446FFF7F0FF236A1BB15A
:102E5000BDE81040FFF7F0BF044B2362044B1B6832
:102E6000002BF5D1FFF7C4FFF2E700BFB12D00083A
:102E7000B40200202DE9F843074688461446002690
:102E8000D4E90195B9F1010905D52468002CF7D1E1
:102E90003046BDE8F883AB89012B07D9B5F90E3070
:102EA000013303D029463846C04706436835E9E771
:102EB0000FB407B5064904AB086853F8042B8168C2
:102EC000019300F0C1F803B05DF804EB04B0704763
:102ED00018000020036A70B505460E4684680BB9D9
:102EE000FFF7B0FF636EDB0705D4A389980502D412
:102EF000A06D00F080F8A389190702D52369002B83
:102F000035D12146284600F01FFD80B34FF0FF3534
:102F1000636EDA0705D4A3899B0502D4A06D00F087
:102F20006BF8284670BD002B04DAA2699A4217DCC0
:102F30000A2915D023685A1C22601970A36816F854
:102F4000011F013BA3600029EDD1002B11DA2246BD
:102F50000A21284600F0B9FC0130D7D00A25D7E76E
:102F60002246284600F0B1FC0130E7D1CEE7013E11
:102F7000E4E723685A1C22600A221A70EEE7000078
:102F8000024B01461868FFF7A5BF00BF18000020DC
:102F900003460244934200D1704703F8011BF9E74E
:102FA000014B1868704700BF1800002070B500265C
:102FB0000C4D0D4C641BA410A64209D100F0EEFF8D
:102FC00000260A4D0A4C641BA410A64205D170BD10
:102FD00055F8043B98470136EEE755F8043B98470F
:102FE0000136F2E780410008804100088041000876
:102FF00084410008704770477047936810B4013BE4
:10300000002B936007DA9469A34201DB0A2902D1FD
:1030100010BC00F05ABC1368581C106019700846A8
:1030200010BC7047F8B506460F461446D518AC429A
:1030300001D1002007E03A46304614F8011BFFF7A3
:10304000DCFF431CF3D1F8BD2DE9F04F0D461446CB
:10305000984606469DB018B1036A0BB9FFF7F2FE19
:103060006B6ED90705D4AB899A0502D4A86DFFF71A
:10307000C2FFAB891B0701D52B699BB92946304696
:1030800000F062FC70B16B6EDC0704D54FF0FF30CE
:103090001DB0BDE8F08FAB899805F7D4A86DFFF798
:1030A000ABFFF3E70023099320238DF82930302369
:1030B0004FF00109CDF80C80DFF8A8818DF82A3097
:1030C00023469A4613F8012B0AB1252AF9D1BAEB07
:1030D000040B0BD05B46224629463046FFF7A2FF81
:1030E000013000F0A780099A5A4409929AF80030FA
:1030F000002B00F09F8000234FF0FF32CDE9052325
:103100000AF1010A049307938DF853301A93544639
:10311000052214F8011B534800F046FD049AD8B963
:10312000D10644BF20238DF85330130744BF2B230F
:103130008DF853309AF800302A2B15D054460020D1
:103140004FF00A0C079A214611F8013B303B092B3E
:103150004BD9B0B1079214E0A0EB080309FA03F3CE
:103160001343A2460493D2E7039B191D1B680391E6
:10317000002BBBBF5B4242F0020207930793B8BF2C
:10318000049223782E2B0AD163782A2B32D1039B09
:1031900002341A1D1B68039243EAE3730593DFF8B8
:1031A000C8A003225046217800F0FEFC38B140222E
:1031B000049BA0EB0A00824013430134049314F8EB
:1031C000011B062229488DF8281000F0EDFC00288C
:1031D0003FD0274B1BBB039B073323F00703083368
:1031E0000393099B3B4409936AE70C4601200CFBBF
:1031F0000232A8E700234FF00A0C19460134059368
:10320000204610F8012B303A092A03D9002BC6D0EA
:103210000591C4E7044601230CFB0121F0E703AB51
:1032200000932A463046134B04A9AFF300800746AB
:10323000781CD6D16B6ED90705D4AB899A0502D418
:10324000A86DFFF7D9FEAB895B063FF51FAF099864
:103250001EE703AB00932A463046064B04A900F054
:103260001FF9E4E7144100081A4100081E41000854
:10327000000000002530000870B50F4E0C46316884
:10328000054611B900F04CFC30602146284600F09C
:1032900047FC431C03D14FF0FF34204670BDC41CD3
:1032A00024F00304A042F8D0211A284600F038FC8C
:1032B0000130F2D1EFE700BFBC0200202DE9F84356
:1032C000CD1C25F0030508350C2D38BF0C25002D2D
:1032D000064601DBA94204D90C2333600020BDE877
:1032E000F883DFF8D48000F0A1FAD8F800301C464B
:1032F00044BB29463046FFF7BFFF431C044658D164
:10330000D8F800402746002F43D1002C4BD023682B
:103310003946304604EB030900F002FC814542D1F6
:10332000216830466D1A2946FFF7A6FF01303AD0D2
:1033300023682B442360D8F800305A6862BBC8F871
:1033400000700FE02268521B20D40B2A17D9611994
:10335000A342256018BF5960636808BFC8F8001011
:1033600062514B60304600F067FA04F10B00231DF8
:1033700020F00700C21A1CBF1B1AA350AFE76268F7
:10338000A3420CBFC8F800205A60EBE723466468EC
:10339000AEE73C467F68B6E71A465B68A342FBD1BE
:1033A00000235360DEE70C233046336000F044FA1C
:1033B00094E70560D6E700BFC00200202DE9F04782
:1033C000164698468A680B6907469342B8BF13466B
:1033D000336091F843200C46DDF820900AB10133A8
:1033E00033602368990642BF33680233336025682F
:1033F00015F0060506D104F1190AE36832689B1A34
:10340000AB422BDC94F843302268003B18BF012309
:10341000920630D44146384604F14302C847013091
:1034200023D02368226903F00603042B14BF002570
:1034300033684FF0000608BFE56804F11A0408BFBE
:10344000ED1A54F8123C08BF25EAE5759342C4BF53
:103450009B1AED18B5421AD1002008E0012352460C
:1034600041463846C847013003D14FF0FF30BDE830
:10347000F0870135C1E73020E11881F843005A1C7C
:1034800094F845102244023382F84310C2E7012326
:10349000224641463846C8470130E6D00136D9E7D2
:1034A0002DE9FF470F7E9146782F80460C469A46BD
:1034B0000C9E01F1430207D8622F0AD8002F00F0BA
:1034C000D180582F00F0B88004F1420684F8427091
:1034D0003AE0A7F16303152BF6D801A151F823F0C8
:1034E000393500084D350008C9340008C9340008D2
:1034F000C9340008C93400084D350008C934000833
:10350000C9340008C9340008C93400084B36000823
:103510007735000805360008C9340008C9340008AA
:103520006D360008C934000877350008C934000832
:10353000C93400080D36000833681A1D1B68326054
:1035400004F1420684F8423001239CE0336820688D
:10355000191D3160060601D51D6803E04506FBD53F
:10356000B3F90050002D03DA2D236D4284F8433067
:103570000A23584811E021683368080653F8045BB1
:1035800002D4490648BFADB26F2F336014BF0A237F
:1035900008235048002184F843106668002EA66076
:1035A00005DB21682E4321F0040121604BD0164633
:1035B000B5FBF3F103FB1157C75D06F8017D2F46FC
:1035C000BB420D46F4D9082B0BD12368DF0708D581
:1035D000236961689942DEBF302306F8013C06F199
:1035E000FF36921B22614B4621464046CDF800A093
:1035F00003AAFFF7E3FE01304AD14FF0FF3004B0D9
:10360000BDE8F087236843F0200323607827324821
:1036100084F84570236831681F0651F8045B02D4B2
:103620005F0648BFADB23160D90744BF43F0200305
:1036300023601DB11023ADE72648E9E7236823F096
:1036400020032360F6E71646BDE733682568181D9A
:10365000616930602E061B6801D5196002E06806BA
:10366000FBD51980002316462361BCE7336800218F
:103670001A1D32601E686268304600F095FA08B183
:10368000801B606063682361002384F84330AAE7ED
:103690003246494640462369D0470130ADD02368C1
:1036A0009B0713D4E068039B9842B8BF1846A6E76F
:1036B0000123324649464046D04701309DD001356E
:1036C000E36803995B1AAB42F2DCEBE7002504F1F7
:1036D0001906F5E72541000836410008B1F90C202C
:1036E000F8B5160705460C4654D44B68002B02DC8F
:1036F0000B6C002B48DDE66A002E45D0002312F447
:1037000080522F68216A2B6030D0626DA3895907DF
:1037100005D56368D21A636B0BB1236CD21A0023F0
:103720002846E66A216AB047431CA38906D1296866
:103730001D292BD8284ACA40D60727D50022626007
:103740002269D904226004D5421C01D12B6803B937
:103750006065616B2F60B9B104F14403994202D0F6
:10376000284600F02FFA002363630DE0012328466A
:10377000B0470246501CC9D12B68002BC6D01D2B68
:1037800001D0162B1DD12F60002021E043F0400313
:103790001BB21AE00F69002FF6D0930718BF002361
:1037A0000E6808BF4B69F61B0F608B60002EEBDDC7
:1037B00033463A462846216AD4F828C0E047002814
:1037C00007DCB4F90C3043F040034FF0FF30A38125
:1037D000F8BD0744361AE9E70100402038B50B6907
:1037E00005460C4613B90025284638BD18B1036AB2
:1037F0000BB9FFF727FBB4F90C30002BF3D0626E46
:10380000D00704D4990502D4A06DFFF7F4FB284635
:103810002146FFF763FF636E0546DA07E4D4A38908
:103820009B05E1D4A06DFFF7E7FBDDE70148FFF75B
:10383000E2BB00BFB80200200148FFF7DDBB00BFBC
:10384000B802002010B50C46B1F90E1000F056F980
:103850000028ABBF636DA3891B1823F48053ACBF52
:103860006365A38110BD2DE9F0411F468B89054694
:10387000DB050C46164605D502230022B1F90E10D1
:1038800000F02AF9A389324623F48053A381284605
:103890003B46B4F90E10BDE8F04100F051B910B547
:1038A0000C46B1F90E1000F017F9431CA38915BF9F
:1038B000606523F4805343F48053A38118BFA38130
:1038C00010BDB1F90E1000F04DB9F8B50E46144612
:1038D000054618B1036A0BB9FFF7B4FAA369A360F0
:1038E000A3891A0701D5236943B92146284600F068
:1038F0002BF818B14FF0FF373846F8BD236822691E
:10390000F6B2981A63693746834205DC2146284699
:10391000FFF764FF0028EDD1A368013BA360236893
:103920005A1C22601E706269431C9A4204D0A3890B
:10393000DB07E1D50A2EDFD121462846FFF74EFFEF
:103940000028D9D0D6E7000038B5294B05461868BD
:103950000C4618B1036A0BB9FFF774FAB4F90C30CE
:10396000190722D4DA0607D409222A6043F040035B
:103970004FF0FF30A38133E0580712D5616B41B19E
:1039800004F14403994202D0284600F01BF90023B9
:103990006363A38923F02403A38100236360236965
:1039A0002360A38943F00803A38123694BB9A3894A
:1039B00003F42073B3F5007F03D02146284600F0BE
:1039C0003EF8B4F90C3013F001020AD00022A260D4
:1039D00062695242A261226942B913F08000C5D1E6
:1039E00038BD990758BF6269A260F4E70020F7E785
:1039F0001800002070B50C46B1F90E1015460029CC
:103A00001E4696B00CDAA389002113F0800F14BF74
:103A100040234FF48063002031602B6016B070BDEE
:103A20006A4600F0AFF80028EDDB019901F470411F
:103A3000A1F50053594259414FF48063EBE78B895C
:103A4000F7B59D0706460C4607D504F147032360EA
:103A500023610123636103B0F0BD6A4601ABFFF748
:103A6000C9FF009F054639463046FFF727FC48B995
:103A7000B4F90C309A05EED423F0030343F00203AB
:103A8000A381E2E7A389C4E9040743F08003A3818B
:103A9000019B20605BB13046B4F90E1000F00CF8C9
:103AA00028B1A38923F0030343F00103A381A38971
:103AB0001D43A581CFE7000038B50023054D04461E
:103AC00008462B60FEF726FC431C02D12B6803B18D
:103AD000236038BDC402002038B5044608461146AC
:103AE0000022054D2A601A46FEF716FC431C02D13F
:103AF0002B6803B1236038BDC402002038B50446EA
:103B0000084611460022054D2A601A46FEF7DCFBE6
:103B1000431C02D12B6803B1236038BDC4020020CE
:103B200038B50023054D044608462B60FEF7A8FB78
:103B3000431C02D12B6803B1236038BDC4020020AE
:103B400038B50446084611460022054D2A601A463B
:103B5000FEF7CAFB431C02D12B6803B1236038BDBA
:103B6000C402002038B50023054D044608462B60EA
:103B7000FEF7C8FB431C02D12B6803B1236038BD9C
:103B8000C402002038B50023064D044608461146FD
:103B90002B60FEF7BAFB431C02D12B6803B12360F4
:103BA00038BD00BFC4020020034610B5C9B20244AC
:103BB0009342184601D1002003E0047801338C427F
:103BC000F6D110BD38B50546002940D051F8043C67
:103BD0000C1F002BB8BFE418FFF728FE1C4A13681F
:103BE00033B9636014602846BDE83840FFF724BE4F
:103BF000A34208D9206821188B4201BF19685B686D
:103C000009182160EDE71A465B680BB1A342FAD9A7
:103C100011685018A0420BD120680144501883420B
:103C20001160E0D118685B68084410605360DAE7FF
:103C300002D90C232B60D6E7206821188B4201BFE4
:103C400019685B680918216063605460CBE738BD70
:103C5000C002002000F000B870B521F00045B5F1B9
:103C6000FF4F0A4603462CD820F00046B6F1FF4F1E
:103C7000844626D8B1F17E5F35D08C1704F002045B
:103C800044EAD07416B33DB3B5F1FF4F33D0B6F16B
:103C9000FF4F21D0761BB6F1F45F4FEAE65028DAE9
:103CA000002933DA3C3031DA0020012C3FD0022CDD
:103CB00035D02CB12449FCF73FFD2449FCF73AFDEF
:103CC00070BD19461046FCF737FD70BD022C08D0B8
:103CD000032CF5D11E4870BDBCF1000F07DB1D4859
:103CE00070BD1A4870BDBDE8704000F03DB81A487C
:103CF00070BD1848D9E7B6F1FF4F04F1FF3419D071
:103D0000022C1DD8154B53F8240070BD11461846DF
:103D1000FCF7CEFE00F03EF900F026F8C5E70A49B0
:103D2000FCF70AFD01460948FCF704FD70BD00F1EF
:103D3000004070BD022C05D8094B53F8240070BD1B
:103D4000002070BD074870BD2EBDBB33DB0F49405E
:103D5000DB0F49C0DB0FC93FDB0FC9BF484100087B
:103D600054410008DB0F493F2DE9F04120F00045A8
:103D7000B5F1A14F0446074608D3B5F1FF4F73D8FC
:103D8000002840F381806F48BDE8F0816E4B9D4272
:103D90007DD8B5F1445F6CD34FF0FF382146204603
:103DA000FCF7D2FD01460646FCF7CEFD0546674905
:103DB000FCF7CAFD6649FCF7BFFC2946FCF7C4FDC9
:103DC0006449FCF7B9FC2946FCF7BEFD6249FCF7E3
:103DD000B3FC2946FCF7B8FD6049FCF7ADFC294669
:103DE000FCF7B2FD5E49FCF7A7FC3146FCF7ACFDE1
:103DF0005C4906462846FCF7A7FD5B49FCF79AFCA0
:103E00002946FCF7A1FD5949FCF794FC2946FCF72B
:103E10009BFD5749FCF78EFC2946FCF795FD55495B
:103E2000FCF788FC2946FCF78FFD01463046FCF77D
:103E300083FC2146FCF788FDB8F1FF3F014646D0E0
:103E40004D4B4E4D53F82810FCF774FC2146FCF7FF
:103E500071FC014655F82800FCF76CFC002F93DA42
:103E600000F10040BDE8F0810146FCF765FCBDE8CB
:103E7000F0814349FCF760FC4FF07E51FCF720FFD6
:103E8000002889D020467FE73E48BDE8F08100F059
:103E900081F83D4B04469D421ED8A3F5D0039D42B8
:103EA0003CD80146FCF748FC4FF07E51FCF742FC41
:103EB00003464FF0804120461C46FCF73DFC01467E
:103EC0002046FCF7F5FD4FF00008044666E7204663
:103ED000FCF730FCBDE8F0812C4B9D4216D84FF02A
:103EE0007F51FCF727FC03464FF07F5120461C46CC
:103EF000FCF72AFD4FF07E51FCF71EFC01462046E0
:103F0000FCF7D6FD4FF00208044647E7014620487B
:103F1000FCF7CEFD4FF0030804463FE74FF07E511B
:103F2000FCF708FC03464FF07E5120461C46FCF788
:103F300003FC01462046FCF7BBFD4FF00108044698
:103F40002CE700BFDB0FC93FFFFFDF3ED769853C91
:103F500059DA4B3D356B883D6E2EBA3D2549123EF0
:103F6000ABAAAA3E21A215BD6BF16E3D95879D3D82
:103F7000388EE33DCDCC4C3E6041000870410008D6
:103F8000CAF24971DB0FC9BFFFFF973FFFFF1B401C
:103F9000000080BF20F00040704700BFF8B500BFB0
:103FA000F8BC08BC9E467047F8B500BFF8BC08BC1A
:043FB0009E46704772
:103FB40048414C4C2041203D20312C2048414C4C60
:103FC4002042203D20302C2048414C4C2043203DB1
:103FD40020310D0048414C4C2041203D20312C2003
:103FE40048414C4C2042203D20302C2048414C4C30
:103FF4002043203D20300D0048414C4C2041203DC1
:1040040020312C2048414C4C2042203D20312C2092
:1040140048414C4C2043203D20300D0048414C4C3D
:104024002041203D20302C2048414C4C2042203D52
:1040340020312C2048414C4C2043203D20300D00A1
:1040440048414C4C2041203D20302C2048414C4CD0
:104054002042203D20312C2048414C4C2043203D1F
:1040640020310D0048414C4C2041203D20302C2073
:1040740048414C4C2042203D20302C2048414C4C9F
:104084002043203D20310D00496E76616C69642027
:10409400616E676C653A2025640D0A004572726F83
:1040A400720D00004144435F433A2025642041449B
:1040B400435F533A2025642074686574615F6465C6
:1040C400673A202564207261643A2025640D0A0051
:1040D4000102000002030405060708090A0B0C0D7F
:1040E4000E0F101001020000020304050607080960
:1040F4000A0B0C0D0E0F1010000000000102030447
:104104000000000000000000010203040607080983
:10411400232D302B2000686C4C00656667454647AC
:10412400003031323334353637383941424344452F
:10413400460030313233343536373839616263649E
:104144006566000000000080DB0F4940DB0F49C0BA
:10415400DB0F49BFE4CB1640E4CB16C06937AC3162
:1041640068212233B40F14336821A2333863ED3E3F
:0C417400DA0F493F5E987B3FDA0FC93F2D
:04418000890D00089D
:04418400610D0008C1
:10418800010000001000000000127A00000000008A
:10419800030000007C0100201C000020000000003B
:1041A8007C010020E40100204C02002000000000F7
:1041B80000000000000000000000000000000000F7
:1041C80000000000000000000000000000000000E7
:1041D80000000000000000000000000000000000D7
:0841E8000000000000000000CF
:0400000508002CE1E2
:00000001FF
