:020000040800F2
:1000000000280020A53B00084D1F00084F1F0008D6
:10001000511F0008531F0008551F00080000000072
:10002000000000000000000000000000571F000852
:10003000591F0008000000005B1F00085D1F00083A
:10004000ED3B0008ED3B0008ED3B0008ED3B0008F0
:10005000ED3B0008ED3B0008ED3B0008ED3B0008E0
:10006000ED3B0008ED3B0008ED3B0008ED3B0008D0
:10007000ED3B0008ED3B0008ED3B0008ED3B0008C0
:10008000ED3B0008ED3B0008ED3B0008ED3B0008B0
:10009000ED3B0008ED3B0008ED3B0008ED3B0008A0
:1000A000ED3B0008ED3B0008ED3B0008ED3B000890
:1000B000ED3B0008ED3B000800000000ED3B0008B0
:1000C000ED3B00080000000000000000ED3B0008D0
:1000D00000000000ED3B0008ED3B000800000000C0
:1000E000ED3B0008ED3B0008ED3B00080000000080
:1000F0000000000000000000000000000000000000
:0C01000000000000000000005FF808F1A3
:100110000348044B834202D0034B03B11847704796
:100120006800002068000020000000000548064B21
:100130001B1AD90F01EBA301491002D0034B03B1E5
:100140001847704768000020680000200000000089
:1001500010B5064C237843B9FFF7DAFF044B13B10F
:100160000448AFF300800123237010BD6800002015
:1001700000000000F03B000808B5044B1BB1044927
:100180000448AFF30080BDE80840CFE7000000005E
:100190006C000020F03B000870B50F4B0F4DAB42D8
:1001A000A3EB050607D00024B61055F8043B013434
:1001B0009847A642F9D803F01BFD094D094B5E1B79
:1001C000AB424FEAA60606D0002455F8043B0134A2
:1001D0009847A642F9D870BD883C0008883C0008C2
:1001E000883C00088C3C0008036A70B506460D4642
:1001F0008468002B38D0A3891B0714D5236993B1D9
:10020000013DA36815F8011F013BA360D9B1002B84
:1002100004DAA2699A420FDC0A290DD023685A1C1D
:1002200022601970EDE72146304600F083FB00287C
:10023000E6D04FF0FF3070BD2246304600F07AFC29
:100240000130DED1F5E7002B08DA22460A213046DC
:1002500000F070FC0130ECD00A2070BD0A22236847
:10026000591C21601A70F7E700F0F4F8C3E700BFEB
:10027000024B01461868FFF7B7BF00BF0C00002013
:1002800000207047024A0349034800F031BB00BF19
:100290000000002059060008100000200C4B4168A7
:1002A00010B59942044601D000F0D6F9A168094B77
:1002B000994202D0204600F0CFF9E168064B9942FE
:1002C00004D02046BDE8104000F0C6B910BD00BF04
:1002D00084000020EC000020540100200020704722
:1002E0002DE9F84300250423294C2A490822C4F8A3
:1002F000381104F15C002946DFF89C90DFF89C80FF
:10030000274F284EC4E90335C4E90055C4E9055513
:10031000A560656600F0C6F8234B0822294604F163
:10032000C4006367C4E90849C4E90A87C4E91A55E7
:10033000C4E91E5526632567C4F8CC50C4F8805024
:1003400000F0B0F8194B2946C4F8DC30082204F15B
:10035000680304F59670C4F88830C4E92398C4E9AA
:100360002576C4E93455C4E93855C4F8D850C4F8E2
:100370003451C4F8E85000F095F804F1D003C4E912
:100380003D98C4E93F76C4F8F030BDE8F88300BF7B
:100390008400002085020008F50B00081D0C0008F1
:1003A0005D0C0008810C0008090001001200020029
:1003B000F8B5254B0646D3F83831002B3CD0234FF7
:1003C000D7E90134013B04D51DE05A1C04F168044F
:1003D00019D0B4F90C50013B002DF6D11C4B08226A
:1003E0002946C4E90155C4E90455E3606566256002
:1003F000A56104F15C0000F055F8C4E90D55C4E9AD
:1004000012552046F8BD3D680DB12F46D8E74FF490
:10041000D671304600F08EF9044680B104230560A1
:10042000294625460C304FF4D072A060636000F07E
:1004300039F83C602F46C3E7FFF752FFBFE70C23B4
:1004400038603360DDE700BF84000020000000203A
:100450000100FFFF036A03B17047044B044AD3F85D
:1004600038310262002BF7D13AE700BF8400002048
:100470009D020008704700BF704700BF0020024A7D
:10048000024900F035BA00BF0000002081020008D8
:100490000020024A024900F02BBA00BF00000020F1
:1004A000DD02000870B5860747D0541E002A3ED0F2
:1004B0000346CAB201E0013C39D303F8012B9D0782
:1004C000F9D1032C2CD9CDB205EB05250F2C1A46FA
:1004D00005EB054534D9A4F1100C2CF00F0603F1FF
:1004E000100EB6444FEA1C1CC2E90055C2E9025581
:1004F00010327245F8D10CF1010214F00C0F03EB2D
:10050000021204F00F0C13D0ACF1040323F0030328
:100510000433134442F8045B9342FBD10CF0030410
:100520002CB1C9B21C4403F8011BA342FBD170BD1E
:1005300064461346002CF4D1F9E703461446C0E79D
:10054000A446E1E7F8B5B1F90C300C461E070746A2
:1005500039D44A68002A53DDE56A002D31D00022E3
:100560003E683A6013F48052216A55D1012338461F
:10057000A847451C024663D0B4F90C30E56A216AED
:10058000580705D56368D21A636B0BB1236CD21A76
:1005900000233846A847421C40D0002223696260ED
:1005A0002360A389DB0400D56065616B3E6041B1C7
:1005B00004F14403994202D0384600F03BF900238D
:1005C00063630020F8BD0E69002EFAD09B0718BFA8
:1005D00000230D6808BF4B690E60AD1B8B600CE0FB
:1005E0002B463246D4F828C03846216AE047B0F19D
:1005F000000CA5EB0C05664406DD002DF0DCE0E701
:100600000A6C002AA8DCDCE7B4F90C3043F04003A4
:100610004FF0FF30A381F8BD626DB1E73968B4F9DE
:100620000C301D29F2D80B4ACA40D507EED500225E
:10063000626022692260DA04B7D50029B4D0B4E739
:100640003B68002B98D01D2B01D0162BDCD13E60CF
:10065000B7E700BF010040200B69B3B110B50446F5
:1006600082B008B1036A5BB1B1F90C3013B9002054
:1006700002B010BD204602B0BDE81040FFF762BFD7
:100680000191FFF7E7FE0199EEE70020704700BFF8
:10069000B8B138B50D4A0369044615682BB10DB1E0
:1006A0002B6A53B1B4F90C300BB9002038BD214688
:1006B0002846BDE83840FFF745BF2846FFF7CAFE89
:1006C000F0E7034A0349044800F012B90C00002087
:1006D000000000205906000810000020014B186897
:1006E000704700BF0C00002070B5114E05463368FE
:1006F0000C46BBB12146284600F06AFA431C01466D
:100700000CD0C41C24F00304A04205D02846611A72
:1007100000F05EFA013001D0204670BD4FF0FF348A
:10072000204670BD194600F053FA3060E2E700BF82
:10073000C00100202DE9F843CD1C25F00305083544
:100740000C2D38BF0C25002D064618DBA94216D803
:10075000DFF8DC8000F050F9D8F80420A2B114468C
:1007600003E0636822467BB11C4623685B1BF8D418
:100770000B2B1FD89442636854D053600CE00C23B9
:1007800033600020BDE8F88329463046FFF7ACFF10
:10079000431C044619D00560304600F02FF904F1DF
:1007A0000B00231D20F00700C21A1CBF1B1AA35008
:1007B000BDE8F88361199442256014BF5160C8F800
:1007C0000410635163684B60E6E7D8F804701FB308
:1007D0003C467F68002FFBD123683946304604EB46
:1007E000030900F0F5F9814516D123683046ED1A6A
:1007F0002946FFF779FF01300ED02368D8F804208E
:100800002B442360536883B1A34203D01A465B682C
:100810009C42FBD10023B0E70C233046336000F04C
:10082000EDF8AEE7C8F80430B6E7C8F80470B3E7EF
:10083000C0010020002950D038B551F8043C0C1FED
:10084000002BB8BFE418054600F0D6F8274A136815
:100850002BB1A3420CD92168601883422CD02846C2
:1008600063601460BDE8384000F0C8B8A3420FD8F8
:100870001A465B68002BF9D111685018844217D0D2
:100880002CD3636054602846BDE8384000F0B6B809
:1008900011685018A04214D020D8216860188342F3
:1008A000EFD118685B680844C4E900035460EAE7C4
:1008B00023680B441360E6E718685B68084420600F
:1008C000CDE720680144501883421160DBD1D3E9A1
:1008D00000040144C2E90014D5E770470C23284600
:1008E0002B60BDE8384000F089B800BFC40100208B
:1008F0002DE9F8434FF0000980460F461646D6E929
:100900000154013D10D4A389012B08D9B4F90E304C
:10091000013304D021464046B84749EA0009013D69
:100920006B1C04F16804EED13668002EE7D148460E
:10093000BDE8F88338B52F4B05461B680C4613B14C
:100940001A6A002A4BD0B4F90C3018071CD522695A
:1009500022B313F0010107D000206169A060494271
:10096000A1613AB1002038BD980758BF6169A16004
:10097000002AF7D1190658BF1046F4D543F04003BA
:10098000A3814FF0FF3038BDD9062CD55A0712D4B9
:10099000226943F00803A381002ADAD103F420710D
:1009A000B1F5007FD5D02146284600F029F8B4F9EA
:1009B0000C302269CDE7616B51B104F144029142E0
:1009C00004D02846FFF736FFB4F90C3000226263EA
:1009D0000021226923F02403C4E90021D9E7184645
:1009E000FFF738FDAFE7092243F040032A60A381F7
:1009F000C7E700BF0C000020704700BF704700BF72
:100A000070B5B1F90C300C46990796B007D50122A4
:100A100004F14703C4E90432236016B070BDB4F991
:100A20000E100546002929DB6A4600F055F900281A
:100A300022DB4FF480612846019EFFF77BFE88B3DE
:100A4000A38906F4704643F08003A3814FF48063CA
:100A5000B6F5005FC4E904032060DED12846B4F98E
:100A60000E1000F055F80028D7D0A38923F0030317
:100A700043F00103A381D0E7B4F90C3013F0800FE9
:100A800014BF40264FF4806628463146FFF752FED9
:100A900040B1A389C4E9040643F080032060A38128
:100AA00016B070BDB4F90C309A05B6D4012123F00C
:100AB000030304F1470243F00203C4E90421A381C4
:100AC0002260AAE770B50C46B1F90E101546002950
:100AD0001E4696B00FDB6A4600F0FEF800280ADBDF
:100AE000019B4FF4806203F47043A3F50053B3FA03
:100AF00083F35B0907E0A289002312F0800F14BF83
:100B000040224FF48062002033602A6016B070BD2E
:100B1000002238B5064D044608462A6002F052FB12
:100B2000431C00D038BD2B68002BFBD0236038BDA0
:100B3000C8010020F8B506460D46144610B1036AF8
:100B4000002B37D0A269A389A2601A0719D523699F
:100B5000BBB122686169D31AEDB299422F4620DDFC
:100B60000133A1680139A160511C216015706269CF
:100B70009A420DD0A389DB0701D50A2D08D038464B
:100B8000F8BD21463046FFF7D5FE38B92369E0E7C6
:100B900021463046FFF760FD0028F0D04FF0FF37C8
:100BA000EDE721463046FFF757FD0028F6D1012337
:100BB0002268D6E7FFF74EFCC4E700BF03460A46AB
:100BC000024908681946FFF7B5BF00BF0C000020B6
:100BD000002238B5064D044608462A6002F0A8FAFD
:100BE000431C00D038BD2B68002BFBD0236038BDE0
:100BF000C801002010B50C46B1F90E1000F056F8EF
:100C0000002803DB636D0344636510BDA38923F4EF
:100C10008053A38110BD00BF002070472DE9F04133
:100C20000C46B1F90C101F46CB05054616460BD4F1
:100C300021F48051A1813B4632462846B4F90E107A
:100C4000BDE8F04100F072B8B4F90E1002230022A2
:100C500000F056F8B4F90C10EAE700BF10B50C46E6
:100C6000B1F90E1000F04CF8B4F90C30421C0EBF74
:100C700023F4805343F480536065A38110BD00BF0B
:100C8000B1F90E1000F000B8002238B5064D044648
:100C900008462A6002F08EFA431C00D038BD2B684B
:100CA000002BFBD0236038BDC801002038B50C46AE
:100CB000114600228446074D20462A601A466446A3
:100CC00002F05AFA431C00D038BD2B68002BFBD031
:100CD000236038BDC801002070B50026074D0446CA
:100CE000084611462E6002F068FA431C00D070BD21
:100CF0002B68002BFBD0236070BD00BFC801002013
:100D000038B50C46114600228446074D20462A601D
:100D10001A46644602F058FA431C00D038BD2B68CE
:100D2000002BFBD0236038BDC801002038B50C462D
:100D3000114600228446074D20462A601A46644622
:100D400002F02AFA431C00D038BD2B68002BFBD0E0
:100D5000236038BDC801002000F000B870B521F054
:100D60000045B5F1FF4F0A4603462CD820F0004657
:100D7000B6F1FF4F844626D8B1F17E5F35D08C178F
:100D800004F0020444EAD07416B33DB3B5F1FF4F4A
:100D900033D0B6F1FF4F21D0761BB6F1F45F4FEAA6
:100DA000E65028DA002934DA3C3032DA0020012C0F
:100DB00040D0022C36D02CB1254900F083FC2549C7
:100DC00000F07EFC70BD1946104600F07BFC70BD43
:100DD000022C08D0032CF5D11F4870BDBCF1000FC8
:100DE00007DB1E4870BD1B4870BDBDE8704000F0B9
:100DF0003DB81B4870BD1948D9E7B6F1FF4F04F163
:100E0000FF341AD0022C1ED8164B03EB8403D8688B
:100E100070BD1146184600F011FE00F03BF900F0DD
:100E200025F8C4E70A4900F04DFC0146094800F0E6
:100E300047FC70BD00F1004070BD022C05D8094B85
:100E400053F8240070BD002070BD074870BD00BF7E
:100E50002EBDBB33DB0F4940DB0F49C0DB0FC93F61
:100E6000DB0FC9BF083C0008DB0F493F2DE9F0410B
:100E700020F00045B5F1A14F0446074608D3B5F16F
:100E8000FF4F73D8002840F381806F48BDE8F081A0
:100E90006E4B9D427DD8B5F1445F6CD34FF0FF3867
:100EA0002146204600F016FD0146064600F012FDE0
:100EB0000546674900F00EFD664900F003FC29462F
:100EC00000F008FD644900F0FDFB294600F002FD3A
:100ED000624900F0F7FB294600F0FCFC604900F095
:100EE000F1FB294600F0F6FC5E4900F0EBFB3146D1
:100EF00000F0F0FC5C490646284600F0EBFC5B493C
:100F000000F0DEFB294600F0E5FC594900F0D8FB73
:100F1000294600F0DFFC574900F0D2FB294600F0DB
:100F2000D9FC554900F0CCFB294600F0D3FC014622
:100F3000304600F0C7FB214600F0CCFCB8F1FF3F83
:100F4000014646D04D4D05EB8803196900F0B8FB0A
:100F5000214600F0B5FB014655F8280000F0B0FB33
:100F6000002F93DA00F10040BDE8F081014600F067
:100F7000A9FBBDE8F081424900F0A4FB4FF07E518F
:100F800000F064FE002889D020467FE73D48BDE898
:100F9000F08100F07FF83C4B04469D421ED8A3F53B
:100FA000D0039D423CD8014600F08CFB4FF07E51AF
:100FB00000F086FB03464FF0804120461C4600F0BF
:100FC00081FB0146204600F039FD4FF00008044641
:100FD00066E7204600F074FBBDE8F0812B4B9D4294
:100FE00016D84FF07F5100F06BFB03464FF07F5156
:100FF00020461C4600F06EFC4FF07E5100F062FB74
:101000000146204600F01AFD4FF00208044647E76B
:1010100001461F4800F012FD4FF0030804463FE769
:101020004FF07E5100F04CFB03464FF07E512046BE
:101030001C4600F047FB0146204600F0FFFC4FF045
:10104000010804462CE700BFDB0FC93FFFFFDF3E6E
:10105000D769853C59DA4B3D356B883D6E2EBA3DDC
:101060002549123EABAAAA3E21A215BD6BF16E3DE9
:1010700095879D3D388EE33DCDCC4C3E203C00080D
:10108000CAF24971DB0FC9BFFFFF973FFFFF1B404B
:10109000000080BF20F00040704700BF70B54FF0E7
:1010A000FF0C4CF4E06C1CEA11541DBF1CEA1355F4
:1010B00094EA0C0F95EA0C0F00F0DEF82C4481EA5C
:1010C000030621EA4C5123EA4C5350EA013518BF7C
:1010D00052EA033541F4801143F4801338D0A0FB69
:1010E00002CE4FF00005E1FB02E506F00042E0FB16
:1010F00003E54FF00006E1FB03569CF0000F18BF1C
:101100004EF0010EA4F1FF04B6F5007F64F54074C3
:1011100004D25FEA4E0E6D4146EB060642EAC62156
:1011200041EA55514FEAC52040EA5E504FEACE2EC3
:10113000B4F1FD0C88BFBCF5E06F1ED8BEF1004FC6
:1011400008BF5FEA500E50F1000041EB045170BD42
:1011500006F0004646EA010140EA020081EA030186
:10116000B4EB5C04C2BFD4EB0C0541EA045170BD82
:1011700041F480114FF0000E013C00F3AB8014F1FC
:10118000360FDEBF002001F0004170BDC4F1000445
:10119000203C35DA0C341BDC04F11404C4F12005C6
:1011A00000FA05F320FA04F001FA05F240EA020021
:1011B00001F0004221F0004110EBD37021FA04F657
:1011C00042EB06015EEA430E08BF20EAD37070BD11
:1011D000C4F10C04C4F1200500FA04F320FA05F070
:1011E00001FA04F240EA020001F0004110EBD37072
:1011F00041F100015EEA430E08BF20EAD37070BDE2
:10120000C4F1200500FA05F24EEA020E20FA04F3BA
:1012100001FA05F243EA020321FA04F001F0004169
:1012200021FA04F220EA020000EBD3705EEA430EDA
:1012300008BF20EAD37070BD94F0000F0FD101F009
:101240000046400041EB010111F4801F08BF013C42
:10125000F7D041EA060195F0000F18BF704703F080
:101260000046520043EB030313F4801F08BF013D07
:10127000F7D043EA0603704794EA0C0F0CEA1355C3
:1012800018BF95EA0C0F0CD050EA410618BF52EA7D
:101290004306D1D181EA030101F000414FF0000083
:1012A00070BD50EA410606BF1046194652EA430691
:1012B00019D094EA0C0F02D150EA013613D195EA05
:1012C0000C0F05D152EA03361CBF104619460AD14D
:1012D00081EA030101F0004141F0FE4141F4700157
:1012E0004FF0000070BD41F0FE4141F4780170BD47
:1012F00081F0004102E000BF83F0004330B54FEAC7
:1013000041044FEA430594EA050F08BF90EA020F33
:101310001FBF54EA000C55EA020C7FEA645C7FEAC6
:10132000655C00F0E2804FEA5454D4EB5555B8BFE9
:101330006D420CDD2C4480EA020281EA030382EA5A
:10134000000083EA010180EA020281EA0303362DEC
:1013500088BF30BD11F0004F4FEA01314FF4801CBF
:101360004CEA113102D0404261EB410113F0004FD1
:101370004FEA03334CEA133302D0524263EB430388
:1013800094EA050F00F0A780A4F10104D5F1200E26
:101390000DDB02FA0EFC22FA05F2801841F1000181
:1013A00003FA0EF2801843FA05F359410EE0A5F155
:1013B00020050EF1200E012A03FA0EFC28BF4CF086
:1013C000020C43FA05F3C01851EBE37101F000453C
:1013D00007D54FF0000EDCF1000C7EEB00006EEB49
:1013E0000101B1F5801F1BD3B1F5001F0CD34908D3
:1013F0005FEA30004FEA3C0C04F101044FEA44522A
:1014000012F5800F80F09A80BCF1004F08BF5FEAB0
:10141000500C50F1000041EB045141EA050130BD90
:101420005FEA4C0C404141EB0101013C28BFB1F5A2
:10143000801FE9D291F0000F04BF01460020B1FAED
:1014400081F308BF2033A3F10B03B3F120020CDAC0
:101450000C3208DD02F1140CC2F10C0201FA0CF09E
:1014600021FA02F10CE002F11402D8BFC2F1200C03
:1014700001FA02F120FA0CFCDCBF41EA0C019040B9
:10148000E41AA2BF01EB0451294330BD6FEA040402
:101490001F3C1CDA0C340EDC04F11404C4F12002ED
:1014A00020FA04F001FA02F340EA030021FA04F3FF
:1014B00045EA030130BDC4F10C04C4F1200220FA56
:1014C00002F001FA04F340EA0300294630BD21FA94
:1014D00004F0294630BD94F0000F83F4801306BF5A
:1014E00081F480110134013D4EE77FEA645C18BF4E
:1014F0007FEA655C29D094EA050F08BF90EA020FE5
:1015000005D054EA000C04BF1946104630BD91EADC
:10151000030F1EBF0021002030BD5FEA545C05D1DF
:101520004000494128BF41F0004130BD14F580041E
:101530003CBF01F5801130BD01F0004545F0FE4192
:1015400041F470014FF0000030BD7FEA645C1ABFC7
:10155000194610467FEA655C1CBF0B46024650EAFE
:10156000013406BF52EA033591EA030F41F400212A
:1015700030BD00BF90F0000F04BF0021704730B5B0
:101580004FF4806404F132044FF000054FF0000185
:1015900050E700BF90F0000F04BF0021704730B546
:1015A0004FF4806404F1320410F0004548BF40421B
:1015B0004FF000013EE700BF42004FEAE2014FEA70
:1015C00031014FEA02701FBF12F07F4393F07F4F4B
:1015D00081F06051704732F07F4208BF704793F04E
:1015E0007F4F04BF41F40021704730B54FF4607461
:1015F00001F0004521F000411CE700BF50EA010264
:1016000008BF704730B54FF000050AE050EA01020C
:1016100008BF704730B511F0004502D5404261EB7C
:1016200041014FF4806404F132045FEA915C3FF4BD
:10163000D8AE4FF003025FEADC0C18BF03325FEA5A
:10164000DC0C18BF033202EBDC02C2F1200300FA0B
:1016500003FC20FA02F001FA03FE40EA0E0021FA30
:1016600002F11444BDE600BF4FEA410212F5001238
:1016700015D211D56FF47873B3EB625212D94FEAD9
:10168000C12343F0004343EA505311F0004F23FAC3
:1016900002F018BF404270474FF00000704750EA18
:1016A000013005D111F0004008BF6FF000407047D5
:1016B0004FF00000704700BF80F0004002E000BF24
:1016C00081F0004142001FBF5FEA410392EA030F2D
:1016D0007FEA226C7FEA236C6AD04FEA1262D2EB77
:1016E0001363C1BFD218414048404140B8BF5B427C
:1016F000192B88BF704710F0004F40F4000020F015
:101700007F4018BF404211F0004F41F4000121F02A
:101710007F4118BF494292EA030F3FD0A2F1010274
:1017200041FA03FC10EB0C00C3F1200301FA03F1B2
:1017300000F0004302D5494260EB4000B0F5000FD5
:1017400013D3B0F1807F06D340084FEA310102F194
:101750000102FE2A51D2B1F1004F40EBC25008BF46
:1017600020F0010040EA03007047490040EB000010
:10177000013A28BFB0F5000FEDD2B0FA80FCACF111
:10178000080CB2EB0C0200FA0CF0AABF00EBC2503E
:1017900052421843BCBFD0401843704792F0000F2C
:1017A00081F4000106BF80F400000132013BB5E77F
:1017B0004FEA41037FEA226C18BF7FEA236C21D0F5
:1017C00092EA030F04D092F0000F08BF084670475A
:1017D00090EA010F1CBF0020704712F07F4F04D128
:1017E000400028BF40F00040704712F100723CBF3B
:1017F00000F50000704700F0004343F0FE4040F465
:10180000000070477FEA226216BF08467FEA236322
:101810000146420206BF5FEA412390EA010F40F40D
:10182000800070474FF0000304E000BF10F0004359
:1018300048BF40425FEA000C08BF704743F0964340
:1018400001464FF000001CE050EA010208BF70475B
:101850004FF000030AE000BF50EA010208BF7047E2
:1018600011F0004302D5404261EB41015FEA010CF7
:1018700002BF84460146002043F0B64308BFA3F1EF
:101880008053A3F50003BCFA8CF2083AA3EBC253D1
:1018900010DB01FA02FC634400FA02FCC2F12002F0
:1018A000BCF1004F20FA02F243EB020008BF20F027
:1018B0000100704702F1200201FA02FCC2F120028D
:1018C00050EA4C0021FA02F243EB020008BF20EA82
:1018D000DC7070474FF0FF0C1CEAD0521EBF1CEAB0
:1018E000D15392EA0C0F93EA0C0F6FD01A4480EA9E
:1018F000010C400218BF5FEA41211ED04FF0006387
:1019000043EA501043EA5111A0FB01310CF00040B2
:10191000B1F5000F3EBF490041EAD3715B0040EAD8
:10192000010062F17F02FD2A1DD8B3F1004F40EBA8
:10193000C25008BF20F00100704790F0000F0CF07B
:10194000004C08BF49024CEA502040EA51207F3A3F
:10195000C2BFD2F1FF0340EAC250704740F400001A
:101960004FF00003013A5DDC12F1190FDCBF00F00B
:1019700000407047C2F10002410021FA02F1C2F1B9
:10198000200200FA02FC5FEA310040F1000053EA55
:101990004C0308BF20EADC70704792F0000F00F0A3
:1019A000004C02BF400010F4000F013AF9D040EAA9
:1019B0000C0093F0000F01F0004C02BF490011F43D
:1019C000000F013BF9D041EA0C018FE70CEAD1533B
:1019D00092EA0C0F18BF93EA0C0F0AD030F0004CBB
:1019E00018BF31F0004CD8D180EA010000F000406F
:1019F000704790F0000F17BF90F0004F084691F02D
:101A0000000F91F0004F14D092EA0C0F01D1420266
:101A10000FD193EA0C0F03D14B0218BF084608D12F
:101A200080EA010000F0004040F0FE4040F4000079
:101A3000704740F0FE4040F4400070474FF0FF0C0C
:101A40001CEAD0521EBF1CEAD15392EA0C0F93EA53
:101A50000C0F69D0A2EB030280EA010C49024FEAA5
:101A6000402037D04FF0805343EA111143EA10135E
:101A70000CF000408B4238BF5B0042F17D024FF416
:101A8000000C8B4224BF5B1A40EA0C00B3EB510FF1
:101A900024BFA3EB510340EA5C00B3EB910F24BFDA
:101AA000A3EB910340EA9C00B3EBD10F24BFA3EB5F
:101AB000D10340EADC001B0118BF5FEA1C1CE0D127
:101AC000FD2A3FF650AF8B4240EBC25008BF20F0DA
:101AD000010070470CF0004C4CEA50207F32C2BF2E
:101AE000D2F1FF0340EAC250704740F400004FF0CB
:101AF0000003013A37E792F0000F00F0004C02BFFC
:101B0000400010F4000F013AF9D040EA0C0093F0C5
:101B1000000F01F0004C02BF490011F4000F013B1F
:101B2000F9D041EA0C0195E70CEAD15392EA0C0F87
:101B300008D142027FF47DAF93EA0C0F7FF470AFBF
:101B4000084676E793EA0C0F04D14B023FF44CAF02
:101B500008466EE730F0004C18BF31F0004CCAD197
:101B600030F000427FF45CAF31F000437FF43CAFD3
:101B70005FE700BF4FF0FF3C06E000BF4FF0010CF5
:101B800002E000BF4FF0010C4DF804CD4FEA4002D7
:101B90004FEA41037FEA226C18BF7FEA236C11D021
:101BA00001B052EA530C18BF90EA010F58BFB2EBD4
:101BB000030088BFC81738BF6FEAE17018BF40F054
:101BC000010070477FEA226C02D15FEA402C05D108
:101BD0007FEA236CE4D15FEA412CE1D05DF8040B8D
:101BE000704700BF844608466146FFE70FB5FFF720
:101BF000C9FF002848BF10F1000F0FBD4DF808EDD8
:101C0000FFF7F4FF0CBF012000205DF808FB00BFC8
:101C10004DF808EDFFF7EAFF34BF012000205DF822
:101C200008FB00BF4DF808EDFFF7E0FF94BF01206F
:101C300000205DF808FB00BF4DF808EDFFF7D2FF6C
:101C400094BF012000205DF808FB00BF4DF808EDAF
:101C5000FFF7C8FF34BF012000205DF808FB00BF7C
:101C6000D0B50C4600B90846FFF794FC0CA3D3E9A5
:101C70000023FFF713FA06460F462046FFF7D6FD6E
:101C80000949FFF727FEFFF797FC02460B4630464F
:101C90003946FFF733FBFFF7E7FCD0BDAFF3008019
:101CA000000000666666EE3FCDCC4C3D10B5434A61
:101CB00082FB0032C317C3EBE20303EBC303A0EBC9
:101CC0008303232B23D8DFE803F01212121212121F
:101CD00023232323232334343434343445454545E6
:101CE0004545565656565656676767676767344C7C
:101CF00001220821204601F0A9F9002220212046D6
:101D000001F0A4F901228021204601F09FF910BDC5
:101D10002B4C00220821204601F098F900222021B6
:101D2000204601F093F901228021204601F08EF92E
:101D3000EDE7234C00220821204601F087F901221B
:101D40002021204601F082F901228021204601F065
:101D50007DF9DCE71A4C00220821204601F076F9D3
:101D600001222021204601F071F900228021204625
:101D700001F06CF9CBE7124C01220821204601F05A
:101D800065F901222021204601F060F9002280211E
:101D9000204601F05BF9BAE7094C012208212046F0
:101DA00001F054F900222021204601F04FF90022D1
:101DB0008021204601F04AF9A9E700BF398EE338B7
:101DC000000C014000B583B001904FF6FF73012273
:101DD00001A9034801F0E5FA019803B05DF804FB9E
:101DE0007C02002008B572B60348FEF741FA642071
:101DF00000F0F2FBF8E700BF403C000800B595B0EA
:101E0000282200210DEB0200FEF74CFB0023059376
:101E10000693079308930993019302930393049302
:101E200002230A9301220E9210220F9211934FF473
:101E3000601313930AA800F0F9FBC8B90F230593A8
:101E400002210691002307934FF4806208920993C0
:101E500005A800F01DFE68B9022301934FF400436A
:101E6000039301A800F0F0FE30B915B05DF804FB53
:101E7000FFF7B8FFFFF7B6FFFFF7B4FF0000000061
:101E8000F8B500F085FBFFF7B9FF01F0A1FC01F008
:101E9000F9FC01F025FD01F02FFE01F0DBFD00242F
:101EA00025460FE039463046FEF756FFFFF784FB24
:101EB00021A3D3E90023FFF7F1F8FFF7D5FBB430F6
:101EC000FFF7F4FE1E4E304600F018FA4FF0FF31D7
:101ED000304600F069F8304600F028F90146204607
:101EE000FFF7BEFE84B2174E304600F007FA4FF0FF
:101EF000FF31304600F058F8304600F017F901463F
:101F00002846FFF7ADFE85B22046FFF78FFC0E494D
:101F1000FFF7D6FB06462846FFF788FC0A49FFF77D
:101F2000CFFB07460021FFF769FE0028BAD000204A
:101F3000BCE700BFAFF30080F8C1631ADCA54C40DA
:101F400004020020D401002000882645FEE7FEE7B9
:101F5000FEE7FEE7FEE770477047704708B500F000
:101F600029FB08BD82B00E4B9A6942F001029A61CA
:101F70009A6902F001020092009ADA6942F08052F6
:101F8000DA61DB6903F080530193019B054A5368D2
:101F900023F0E06343F08063536002B0704700BFFA
:101FA0000010024000000140F0B583B005460C4629
:101FB0000023019300F00AFB2B689A6812F4807FDB
:101FC00023D107465A6812F4807F03D1DB6A13F4E9
:101FD000700F29D0504B1E68022000F0C1FEB6FBE6
:101FE000F0F62B6819694D4A114236D1D96802F1D1
:101FF0005C42114231D11969494A114240D1DA6833
:10200000484B1A423ED0292341E0AB6A43F02003FB
:10201000AB62002385F82430012003B0F0BD2B68AB
:102020001B6813F0020F0FD02B681B6813F0020F10
:102030004FD1B4F1FF3FF7D0002CF0D000F0C6FA3A
:10204000C31BA342F0D9EAE7AB6A43F00403AB62D7
:10205000002385F824300320DFE71969304A114254
:1020600004D1D96802F16E4211420DD019692E4A8D
:102070000A405AB9DA682C4B13405BB1FC2306E0E6
:10208000292304E0142302E0542300E0FC2303FB93
:1020900006F607E05423FAE7019BB34210D3019BF5
:1020A00001330193019BB34213D2B4F1FF3FF6D049
:1020B000002CF1D000F08AFAC01BA042EFD9EBE768
:1020C000AB6A43F00403AB62002385F8243003209D
:1020D000A3E72B686FF012021A60AB6A43F4007337
:1020E000AB622B689B6803F46023B3F5602F01D0CB
:1020F000002092E7287B60B9AB6A23F48073AB625F
:10210000AB6A13F4805F88D1AB6A43F00103AB6222
:1021100083E7002081E700BF640000202449922467
:102120009224491292244900499224000368D86CF1
:102130007047000030B482B00022019290F8242051
:10214000012A00F08F800346012280F824204A688B
:10215000062A2DD80468606B02EB8202053A4FF024
:102160001F0C0CFA02FC20EA0C000D6805FA02F2C2
:10217000024362630A68092A38D91C68E06802EBE6
:1021800042021E3A4FF0070C0CFA02FC20EA0C0047
:102190008D6805FA02F20243E2600A68103A012AE9
:1021A00034D90020002283F8242002B030BC7047CC
:1021B0000C2A0DD80568286B02EB8202233A1F24F3
:1021C000944020EA04000C68944020432863D1E73F
:1021D0000568E86A02EB8202413A1F24944020EA33
:1021E00004000C6894402043E862C3E71C6820693F
:1021F00002EB42024FF0070C0CFA02FC20EA0C0042
:102200008D6805FA02F202432261C6E71A68164891
:10221000824205D09A6A42F020029A620120C1E708
:10222000906810F4000F1BD1906840F4000090609B
:102230000A68102A01D00020B4E70C4A12680C4941
:10224000A1FB0212920C02EB82025200019202E008
:10225000019A013A0192019A002AF9D10020A1E7DE
:1022600000209FE70220A0E7002401406400002036
:1022700083DE1B4330B583B00023019303689A6863
:1022800012F0010F33D104469A6842F001029A60BD
:10229000184B1B68184AA2FB03239B0C019302E016
:1022A000019B013B0193019B002BF9D100F08EF9BA
:1022B000054623689B6813F0010F16D100F086F9DC
:1022C000431B022BF5D923689B6813F0010FF0D153
:1022D000A36A43F01003A362E36A43F00103E362DD
:1022E000002384F82430012002E0002000E00020D8
:1022F00003B030BD6400002083DE1B4390F824301F
:10230000012B68D010B50446012380F82430FFF774
:10231000B1FF00285BD1A36A23F4407323F00103CB
:1023200043F48073A36223682C4A934227D0A26AA5
:1023300022F48012A2625A6812F4806F05D0A26A59
:1023400022F4405242F48052A262A26A12F4805FE8
:102350002BD0E26A22F00602E262002284F82420F6
:102360006FF002021A6023689A6802F46022B2F5E4
:10237000602F1DD09A6842F480129A602AE0A2F57C
:102380008062526812F4702FD1D0A26A42F4801297
:10239000A262134A526812F4806FD6D0A26A22F465
:1023A000405242F48052A262CFE70022E262D4E7B8
:1023B0000A4A934204D09A6842F4A0029A6009E063
:1023C000A2F58062526812F4702FD3D1F3E7002394
:1023D00084F8243010BD0220704700BF002801405F
:1023E0000024014038B503689A6812F0010F01D14A
:1023F000002038BD04469A6822F001029A6000F07D
:10240000E5F8054623689B6813F0010F13D000F030
:10241000DDF8431B022BF5D923689B6813F0010FED
:10242000F0D0A36A43F01003A362E36A43F0010310
:10243000E3620120DDE70020DBE7000000287BD01D
:1024400070B50446836A002B4DD02046FFF7CAFFC3
:10245000A36A13F0100369D1002867D1A26A22F49D
:10246000885222F0020242F00202A2626268E1692E
:102470000A43217B42EA4102A568B5F5807F02D07C
:10248000012D36D01D46267D012E35D02668716877
:1024900021F46941294371602568AE6827493140BC
:1024A0001143A960A168B1F5807F01D0012902D153
:1024B0002369013B1B052568E96A21F470010B4380
:1024C000EB62236899681E4B0B409A4225D0A36AA1
:1024D00023F0120343F01003A362E36A43F0010305
:1024E000E362012027E0C36280F8243001F026FA7D
:1024F000ABE74FF48075C6E731B9A169013945EA08
:10250000413141F40065C1E7A16A41F02001A162B7
:10251000E16A41F00101E162B8E70023E362A36AE6
:1025200023F0030343F00103A36204E0A36A43F032
:102530001003A362012070BD01207047FDF7E1FF89
:10254000FE0E1FFF10B504460E4B1A784FF47A7337
:10255000B3FBF2F30C4A1068B0FBF3F000F0D2FDCD
:1025600068B90F2C01D901200AE0002221464FF062
:10257000FF3000F0B7FD054B1C60002000E001209B
:1025800010BD00BF5C00002064000020600000203F
:1025900008B5074A136843F010031360032000F0E6
:1025A0008FFD0F20FFF7CEFFFFF7DCFC002008BDFA
:1025B00000200240034A1168034B1B780B44136050
:1025C000704700BFCC0100205C000020014B186860
:1025D000704700BFCC01002038B50446FFF7F6FF76
:1025E0000546B4F1FF3F02D0044B1B781C44FFF7B3
:1025F000EDFF401BA042FAD338BD00BF5C000020B5
:1026000082B0084B1B68084AA2FB03235B0A00FB4D
:1026100003F3019300BF019B5A1E0192002BF9D1D5
:1026200002B0704764000020D34D6210002800F013
:10263000F18170B582B00446036813F0010F2CD00D
:10264000994B5B6803F00C03042B1DD0964B5B6821
:1026500003F00C03082B12D06368B3F5803F41D020
:10266000002B55D103F1804303F504331A6822F49B
:1026700080321A601A6822F480221A6037E08A4B8E
:102680005B6813F4803FE7D0874B1B6813F4003F6F
:1026900003D06368002B00F0BF81236813F0020FA2
:1026A00075D0814B5B6813F00C0F5FD07E4B5B687D
:1026B00003F00C03082B54D02369002B00F08A8010
:1026C0007A4B01221A60FFF781FF0546764B1B68A3
:1026D00013F0020F75D1FFF779FF401B0228F5D9DF
:1026E00003209EE1704A136843F4803313606368EB
:1026F00043B3FFF76BFF05466B4B1B6813F4003FBA
:10270000CBD1FFF763FF401B6428F5D9032088E194
:10271000B3F5A02F09D0644B1A6822F480321A60F6
:102720001A6822F480221A60E1E703F18043A3F5DE
:102730003C331A6842F480221A601A6842F48032EC
:102740001A60D4E7FFF742FF0546574B1B6813F4A6
:10275000003FA2D0FFF73AFF401B6428F5D90320C1
:102760005FE1514B5B6813F4803FA5D14E4B1B6872
:1027700013F0020F03D02369012B40F04F814A4A26
:10278000136823F0F803616943EAC1031360236807
:1027900013F0080F33D0A369002B5CD0434B012208
:1027A000C3F88024FFF712FF05463F4B5B6A13F026
:1027B000020F21D1FFF70AFF401B0228F5D90320A1
:1027C0002FE1394A136823F0F803616943EAC10332
:1027D0001360DCE7354B00221A60FFF7F7FE054671
:1027E000314B1B6813F0020FD1D0FFF7EFFE401BF7
:1027F0000228F5D9032014E10120FFF701FF236827
:1028000013F0040F00F09680274BDB6913F0805F14
:1028100034D1254BDA6942F08052DA61DB6903F08A
:1028200080530193019B0125214B1B6813F4807F8A
:1028300026D0E368012B3DD0002B53D103F1804318
:1028400003F504331A6A22F001021A621A6A22F0AE
:1028500004021A6233E0154B0022C3F88024FFF70C
:10286000B5FE0546104B5B6A13F0020FC7D0FFF7A9
:10287000ADFE401B0228F5D90320D2E00025D3E7A6
:102880000B4A136843F480731360FFF79FFE0646FC
:10289000074B1B6813F4807FCBD1FFF797FE801B9B
:1028A0006428F5D90320BCE0001002400000424239
:1028B000007000405F4A136A43F001031362E3684B
:1028C00033B3FFF783FE06465A4B1B6A13F0020F21
:1028D0002FD1FFF77BFE801B41F288339842F3D95A
:1028E00003209EE0052B09D0524B1A6A22F0010208
:1028F0001A621A6A22F004021A62E0E74D4B1A6A61
:1029000042F004021A621A6A42F001021A62D6E721
:10291000FFF75CFE0646474B1B6A13F0020F08D018
:10292000FFF754FE801B41F288339842F3D903200D
:1029300077E0E5B9E369002B72D03E4A526802F0B5
:102940000C02082A56D0022B17D03B4B00221A66E5
:10295000FFF73CFE0446374B1B6813F0007F47D05F
:10296000FFF734FE001B0228F5D9032059E0314A55
:10297000D36923F08053D361DCE72F4B00221A6622
:10298000FFF724FE05462B4B1B6813F0007F06D093
:10299000FFF71CFE401B0228F5D9032041E0236A03
:1029A000B3F5803F1AD023494B6823F47413226A8D
:1029B000606A024313434B601F4B01221A66FFF704
:1029C00005FE04461B4B1B6813F0007F0ED1FFF77A
:1029D000FDFD001B0228F5D9032022E0154A5368AB
:1029E00023F40033A1680B435360DCE7002018E0B8
:1029F000002016E0012B16D00E4B5B6803F48031EB
:102A0000226A914211D103F47013626A93420ED18B
:102A1000002006E001207047012002E0012000E0D4
:102A2000002002B070BD0120FBE70120F9E7012082
:102A3000F7E700BF00100240000042420F4B5B6806
:102A400003F00C02082A01D00D487047C3F38342FB
:102A50000C49885C13F4803F0BD0084B5B68C3F3D0
:102A60004043094AD35C064A02FB00F0B0FBF3F096
:102A70007047064B03FB00F0704700BF0010024098
:102A800000127A004C3C0008483C000800093D0058
:102A9000002800F0A08070B50D460446524B1B681C
:102AA00003F007038B420BD24F4A136823F007034E
:102AB0000B431360136803F007038B4240F08D80D3
:102AC000236813F0020F17D013F0040F04D0474A05
:102AD000536843F4E0635360236813F0080F04D095
:102AE000424A536843F460535360404A536823F0AA
:102AF000F003A1680B435360236813F0010F31D03A
:102B00006368012B20D0022B25D0384A126812F0BE
:102B1000020F64D035494A6822F0030213434B6028
:102B2000FFF754FD0646314B5B6803F00C03626807
:102B3000B3EB820F16D0FFF749FD801B41F28833BB
:102B40009842F0D9032045E0284A126812F4003F69
:102B5000E0D101203EE0254A126812F0007FD9D171
:102B6000012037E0204B1B6803F00703AB420AD972
:102B70001D4A136823F007032B431360136803F007
:102B80000703AB422DD1236813F0040F06D0174A78
:102B9000536823F4E063E1680B435360236813F048
:102BA000080F07D0114A536823F46053216943EAA0
:102BB000C1035360FFF742FF0C4B5B68C3F3031381
:102BC0000B4AD35CD8400B4B18600B4B1868FFF7CF
:102BD000B9FC002070BD012070470120FAE70120F8
:102BE000F8E70120F6E700BF002002400010024095
:102BF000783C00086400002060000020014B186849
:102C0000704700BF6400002008B5FFF7F7FF044BD2
:102C10005B68C3F30223034AD35CD84008BD00BFFE
:102C200000100240703C000808B5FFF7E7FF044BB6
:102C30005B68C3F3C223034AD35CD84008BD00BF1E
:102C400000100240703C000870B582B00446036872
:102C500013F0010F36D03F4BDB6913F0805F49D191
:102C60003C4BDA6942F08052DA61DB6903F0805351
:102C70000193019B0125384B1B6813F4807F3BD0E7
:102C8000344B1B6A13F4407313D0626802F4407231
:102C90009A420ED02F4A136A23F440702F4901261E
:102CA000C1F840640026C1F84064106213F0010FBF
:102CB00036D1284A136A23F4407361680B431362C8
:102CC000002D3ED1236813F0020F06D0214A53682D
:102CD00023F44043A1680B435360236813F0100FA3
:102CE00034D01C4A536823F48003E1680B435360DB
:102CF00000202CE00025BEE7174A136843F48073D8
:102D00001360FFF763FC0646134B1B6813F4807FC8
:102D1000B6D1FFF75BFC801B6428F5D9032016E0D1
:102D2000FFF754FC06460B4B1B6A13F0020FC0D191
:102D3000FFF74CFC801B41F288339842F3D9032003
:102D400005E0D36923F08053D361BBE7002002B0D4
:102D500070BD00BF00100240007000400000424201
:102D600008B502284ED0102803D0012828D0002012
:102D700052E02B4B5A68186810F080704CD0C2F3A8
:102D800083432849C85C12F4803F15D0244B5B680C
:102D9000C3F34043244AD25C244BB3FBF2F303FB5E
:102DA00000F01F4B5B6813F4800F35D14000204BBF
:102DB000A3FB003040082FE01E4B03FB00F0F0E7C0
:102DC000174B1B6A40F202321A40B2F5817F24D0C1
:102DD00003F44073B3F5007F04D0B3F5407F09D00E
:102DE000002019E00E4A526A12F0020FF5D049F69F
:102DF000404011E00A4B186810F400300CD04FF23C
:102E0000244009E0FFF710FF054B5B68C3F38133F3
:102E100001335B00B0FBF3F008BD4FF40040FBE76B
:102E200000100240603C00085C3C000800127A0080
:102E3000ABAAAAAA00093D0070B582B00024A4463E
:102E400087E07C4DAB4214D00CD8A5F58015AB4281
:102E50000FD005F57025AB420BD0A5F58015AB4220
:102E600012D106E0744DAB4203D005F58035AB427C
:102E70000AD18B68002B00F0B580012B00F0AD80EB
:102E80004261082400E0CC68BEF1FF0F00F2AC8084
:102E900006464FEA8C0233680F25954023EA050366
:102EA00004FA02F2134333604B6813F0805F4ED094
:102EB000624B9A6942F001029A619B6903F0010337
:102EC0000193019B4FEA9C02951C5D4B53F82560D2
:102ED0000CF00305AD000F23AB4026EA0306594B67
:102EE000984200F0888003F58063984200F0858066
:102EF00003F5806398427CD00323AB403343023216
:102F00004F4D45F822304B6813F4801F77D04E4A5E
:102F1000936843EA0E0393604B6813F4001F74D068
:102F2000494AD36843EA0E03D3604B6813F4003F69
:102F300071D0454A536843EA0E0353604B6813F45B
:102F4000803F6ED0404A136843EA0E0313600CF1D1
:102F5000010C0B6833FA0CF269D0012202FA0CF270
:102F600003EA020E32EA0303F1D14B68122B3FF65B
:102F700068AF122B88D801A555F823F0732E0008EE
:102F8000872E0008CF2F0008E12F0008892E0008A7
:102F9000892E0008892E0008892E0008892E000835
:102FA000892E0008892E0008892E0008892E000825
:102FB000892E0008892E0008892E0008892E000815
:102FC000C92F0008D52F0008CC6804345CE7CC6812
:102FD000083459E7CC680C3456E70261082453E7FB
:102FE000002451E704244FE7061DACF108029200CB
:102FF00051E7022381E700237FE701237DE7124A9F
:10300000936823EA0E03936086E70F4AD36823EAA6
:103010000E03D36089E70C4A536823EA0E0353601A
:103020008CE7094A136823EA0E0313608FE702B0A6
:1030300070BD00BF000022100000311000100240DF
:103040000000014000080140000401400AB1016194
:103050007047090401617047002808DB0901C9B203
:1030600000F1604000F5614080F80013704700F007
:103070000F000901C9B2014B1954704714ED00E06B
:1030800000B500F00700C0F1070CBCF1040F28BF29
:103090004FF0040C031D062B0FD9C31E4FF0FF3E4B
:1030A0000EFA0CF021EA000199400EFA03FE22EA22
:1030B0000E0241EA02005DF804FB0023EEE7000087
:1030C000074AD36823F4E0631B041B0C000200F4DE
:1030D000E060034343F0BF6343F40033D3607047C1
:1030E00000ED00E010B50446054BD868C0F302209F
:1030F000FFF7C6FF01462046FFF7AEFF10BD00BF39
:1031000000ED00E00138B0F1807F0BD24FF0E023FA
:103110005861054AF02182F82310002098610722A7
:103120001A6170470120704700ED00E07047000011
:1031300010B503460C4A0D490D48006840B10C48D3
:1031400000680344521A934206D8094A136010BD1E
:103150000748084C0460F2E7FDF7C0FA0C2303604F
:103160004FF0FF30F3E700BF00280020000400000C
:10317000D0010020C802002070B50C46164600257C
:1031800006E0AFF30080214601F8010B01350C4643
:10319000B542F6DB304670BD70B50C4616460025CC
:1031A00004E014F8010BFEF70DFE0135B542F8DB23
:1031B000304670BD4FF0FF3070474FF400534B6006
:1031C000002070470120704700207047026802F11C
:1031D0000C0353E8003F23F490730C3242E80031B3
:1031E0000029F3D1026802F1140353E8003F23F0F1
:1031F0000103143242E800310029F3D1036B012BA3
:1032000005D0202380F84230002303637047026812
:1032100002F10C0353E8003F23F010030C3242E8A4
:1032200000310029F3D1ECE710B5044602681369B8
:1032300023F44053C1680B4313618368026913434D
:1032400042691A430168CB6823F4B05323F00C039E
:103250001343CB600268536923F4407381690B43C5
:1032600053610268134B9A4220D0FFF7CDFC02460F
:1032700002EB820202EB820263689B00B2FBF3F274
:103280000D48A0FB02314909642303FB11231B01F4
:103290003233A0FB03035B0903F0F00202EB0112DF
:1032A00003F00F03216813448B6010BDFFF7BCFCD3
:1032B0000246DDE7003801401F85EB512DE9F04360
:1032C00083B005460E4617469946DDF828802B68E0
:1032D0001C6836EA04040CBF01240024BC4228D137
:1032E000B8F1FF3FF3D0FFF771F9A0EB09004045BB
:1032F00023D8B8F1000F22D02B68DA6812F0040F3F
:10330000E5D0802EE3D0402EE1D01A6812F0080FED
:10331000DDD0002401941A6801925B680193019B3F
:103320002846FFF753FF08236B6485F840400120CF
:1033300000E0002003B0BDE8F0830320FAE703209B
:10334000F8E760B310B5044690F8413013B3242376
:1033500084F841302268D36823F40053D3602046B8
:10336000FFF762FF2268136923F490431361226818
:10337000536923F02A0353612268D36843F400534E
:10338000D36000206064202384F8413084F8423008
:10339000606310BD80F8403000F0C8FBD7E7012023
:1033A00070472DE9F04182B01E4690F84130DBB203
:1033B000202B56D104460D469046002955D00AB917
:1033C00001204FE000234364212380F84130FFF7C0
:1033D000FDF80746A4F82480A4F82680A368B3F576
:1033E000805F02D04FF0000814E023692BB34FF048
:1033F00000080FE0202384F84130032032E038F841
:10340000023B2268C3F308035360E28C92B2013A94
:1034100092B2E284E38C9BB293B100963B460022C9
:1034200080212046FFF74AFF0028E3D1002DE6D097
:1034300015F8012B23685A60E7E7A8460025E9E75D
:1034400000963B46002240212046FFF737FF18B97F
:10345000202384F8413005E0202384F84130032004
:1034600000E0022002B0BDE8F0810120FAE7000090
:1034700030B4026A036A23F001030362456883697A
:1034800023F073030C681C4322F002028B68134381
:103490000B4A904206D0456084614A6842630362E9
:1034A00030BC704723F00803CA681A4322F00403B3
:1034B00025F440754A692A438D691543EBE700BF3F
:1034C000002C014030B4036A026A22F48072026266
:1034D0004468C26922F073020D68154323F4007337
:1034E0008A6843EA02230D4A904206D04460C561CF
:1034F0004A68C263036230BC704723F40063CA6841
:1035000043EA022323F4806324F440544A6944EAE2
:1035100002148A6944EA0214E8E700BF002C014063
:1035200030B4036A026A22F4805202624468C269BB
:1035300022F4E6420D6842EA052223F400538D6826
:1035400043EA0533074DA84206D04460C2614A6889
:103550000264036230BC704724F480444D6944EA3D
:103560008514F2E7002C014003681B4A904206D004
:10357000B0F1804F03D0A2F59432904203D123F0F2
:1035800070034A681343144A904206D0B0F1804F4A
:1035900003D0A2F59432904203D123F44073CA6859
:1035A000134323F080034A69134303608B68C362AB
:1035B0000B688362084B98420AD001234361036978
:1035C00013F0010F03D0036923F001030361704777
:1035D0000B690363F1E700BF002C014040B310B555
:1035E000044690F83D30F3B1022384F83D30214683
:1035F00051F8040BFFF7B8FF012384F8463084F834
:103600003E3084F83F3084F8403084F8413084F80C
:10361000423084F8433084F8443084F8453084F8EC
:103620003D30002010BD80F83C3000F0D9F9DBE7D8
:103630000120704730B4036A026A22F0100202626D
:103640004468826922F4E6420D6842EA052223F0CA
:1036500020038D6843EA05130C4DA84206D0446050
:1036600082614A688263036230BC704723F0800342
:10367000CD6843EA051323F0400324F440644D6908
:1036800044EA85048D6944EA8504E8E7002C01409A
:1036900038B590F83C30012B66D004460D46012326
:1036A00080F83C300C2A5AD8DFE802F00759595903
:1036B0001B5959593059595944000068FFF7D8FE31
:1036C0002268936943F0080393612268936923F0A9
:1036D000040393612268936929690B439361002075
:1036E0003EE00068FFF7A6FF2268936943F4006399
:1036F00093612268936923F48063936122689369DC
:10370000296943EA01239361002029E00068FFF75B
:10371000D9FE2268D36943F00803D3612268D369D4
:1037200023F00403D3612268D36929690B43D36171
:10373000002015E00068FFF7F3FE2268D36943F428
:103740000063D3612268D36923F48063D361226864
:10375000D369296943EA0123D361002000E00120F5
:10376000002384F83C3038BD0220FCE790F83C2070
:10377000012A28D010B40346012280F83C200222FE
:1037800080F83D2002685068946820F0700C08684A
:1037900040EA0C0050601A680C48824206D0B2F130
:1037A000804F03D0A0F59430824204D124F08004ED
:1037B000496821439160012283F83D20002083F86D
:1037C0003C0010BC70470220704700BF002C014035
:1037D0002DE9F04188B000240494059406940794E0
:1037E000254B9A6942F010029A619A6902F0100220
:1037F0000192019A9A6942F004029A619A6902F070
:1038000004020292029A9A6942F008029A619B6944
:1038100003F008030393039BDFF8608022464FF414
:1038200000514046FFF712FC154E2246A8213046B3
:10383000FFF70CFC4FF400530493012705970694FF
:103840000225079504A94046FFF7F6FA882304935A
:1038500005970694079504A93046FFF7EDFA202353
:10386000049305970695079504A93046FFF7E4FAF7
:1038700008B0BDE8F08100BF001002400010014018
:10388000000C014000B585B000230193029303931F
:103890001148124A02608360037303754FF460227B
:1038A000C261436001230361FEF7C8FD68B90523C7
:1038B0000193012302930023039301A90648FEF715
:1038C00039FC28B905B05DF804FBFEF78BFAEEE78A
:1038D000FEF788FAF6E700BF04020020002401404A
:1038E00000B585B000230193029303931148124A57
:1038F00002608360037303754FF46022C26143600A
:1039000001230361FEF79AFD68B9062301930123A1
:1039100002930023039301A90648FEF70BFC28B984
:1039200005B05DF804FBFEF75DFAEEE7FEF75AFA24
:10393000F6E700BFD40100200028014000B589B09F
:10394000002304930593069307930368204A934248
:1039500005D0204A93421ED009B05DF804FB1E4BEF
:103960009A6942F400729A619A6902F400720092B4
:10397000009A9A6942F004029A619B6903F0040379
:103980000193019B202304930323059304A9134867
:10399000FFF752FAE0E7104B9A6942F480629A61AD
:1039A0009A6902F480620292029A9A6942F00402D1
:1039B0009A619B6903F004030393039B40230493E0
:1039C0000323059304A90548FFF736FAC4E700BFAF
:1039D000002401400028014000100240000801407E
:1039E0000368B3F1804F00D0704782B003F5043311
:1039F000DA6942F00102DA61DB6903F00103019345
:103A0000019B02B07047000000B587B0002302930D
:103A10000393049305930368B3F1804F02D007B07A
:103A20005DF804FB03F504339A6942F004029A61DD
:103A30009B6903F004030193019B07230293022374
:103A40000393059302A90248FFF7F6F9E7E700BFE1
:103A50000008014000B58BB000230893099301933F
:103A600002930393049305930693079321484FF021
:103A700080420260436083604FF6FF72C260036160
:103A80008361FFF7ABFD28BB00230893099308A9C6
:103A90001848FFF76BFE00BB6023019300220292DF
:103AA0000392059201A91348FFF7F2FDC0B9042261
:103AB0000DEB02010F48FFF7EBFDA0B9082201A9A9
:103AC0000C48FFF7E5FD88B90A48FFF79DFF0BB0EA
:103AD0005DF804FBFEF786F9D6E7FEF783F9DBE72E
:103AE000FEF780F9E3E7FEF77DF9E7E7FEF77AF9FD
:103AF000EAE700BF3402002008B50A480A4B036019
:103B00004FF4E133436000238360C36003610C2200
:103B100042618361C361FFF714FC00B908BDFEF781
:103B200061F9FBE77C0200200038014010B586B047
:103B3000002302930393049305930268174B9A4260
:103B400001D006B010BD03F558439A6942F4804293
:103B50009A619A6902F480420092009A9A6942F04E
:103B600004029A619B6903F004030193019B4FF4E3
:103B7000007302930223039303230593084C02A9C5
:103B80002046FFF759F94FF4806302930023039313
:103B9000049302A92046FFF74FF9D2E7003801400D
:103BA00000080140FFF7C2FA0B480C490C4A0023F9
:103BB00002E0D458C4500433C4188C42F9D3094AE3
:103BC000094C002301E013600432A242FBD3FCF74E
:103BD000E3FAFEF755F97047000000206800002066
:103BE000903C000868000020C4020020FEE70000AE
:103BF000F8B500BFF8BC08BC9E467047F8B500BFDA
:083C0000F8BC08BC9E467047A9
:103C0800DB0F49BFE4CB1640E4CB16C000000080B0
:103C1800DB0F4940DB0F49C03863ED3EDA0F493FFF
:103C28005E987B3FDA0FC93F6937AC316821223390
:103C3800B40F14336821A2334572726F720D0000FD
:103C48000102000002030405060708090A0B0C0D0F
:103C58000E0F1010010200000203040506070809F0
:103C68000A0B0C0D0E0F10100000000001020304D7
:103C78000000000000000000010203040607080914
:043C880079010008B6
:043C8C0051010008DA
:103C9000000000000300000084000020100000204D
:103CA0000000000084000020EC00002054010020EF
:103CB0000000000000000000000000000000000004
:103CC00000000000000000000000000000000000F4
:103CD00000000000000000000000000000000000E4
:103CE00000000000000000000000000001000000D3
:083CF0001000000000127A0030
:0400000508003BA50F
:00000001FF
