:020000040800F2
:100000000028002081170008B9030008BB0300087E
:10001000BD030008BF030008C10300080000000082
:10002000000000000000000000000000C303000802
:10003000C503000800000000C7030008C90300084A
:10004000C9170008C9170008C9170008C917000810
:10005000C9170008C9170008C9170008C917000800
:10006000C9170008C9170008C9170008C9170008F0
:10007000C9170008C9170008C9170008C9170008E0
:10008000C9170008C9170008C9170008C9170008D0
:10009000C9170008C9170008C9170008C9170008C0
:1000A000C9170008C9170008C9170008C9170008B0
:1000B000C9170008C917000800000000C917000888
:1000C000C91700080000000000000000C917000860
:1000D00000000000C9170008C91700080000000050
:1000E000C9170008C9170008C91700080000000058
:1000F0000000000000000000000000000000000000
:0C01000000000000000000005FF808F1A3
:10010C000348044B834202D0034B03B1184770479A
:10011C000C0000200C000020000000000548064BDD
:10012C001B1AD90F01EBA301491002D0034B03B1E9
:10013C00184770470C0000200C0000200000000045
:10014C0010B5064C237843B9FFF7DAFF044B13B113
:10015C000448AFF300800123237010BD0C00002075
:10016C00000000002418000808B5044B1BB104491A
:10017C000448AFF30080BDE80840CFE70000000062
:10018C00100000202418000870B586B002AD0024C1
:10019C0002940394049405940F4B9A6942F0040260
:1001AC009A619B6903F004030193019B0B4E224659
:1001BC004FF40051304601F0F1F94FF40053029323
:1001CC00012303930494022305932946304601F03E
:1001DC00DFF806B070BD00BF0010024000080140FF
:1001EC0072B6FEE700B585B000230193029303932A
:1001FC001048114A02608360037303754FF4602248
:10020C00C26143600123036100F0D8FB68B9052388
:10021C000193012302930023039301A9054800F0E5
:10022C0049FA20B905B05DF804FBFFF7D9FFFFF7D9
:10023C00D7FF00BFA00000200024014000B585B00E
:10024C0000230193029303931048114A02608360C8
:10025C00037303754FF46022C26143600123036191
:10026C0000F0ACFB68B90623019301230293002331
:10027C00039301A9054800F01DFA20B905B05DF8FB
:10028C0004FBFFF7ADFFFFF7ABFF00BF70000020D2
:10029C000028014008B50A480A4B03604FF4E133CB
:1002AC00436000238360C36003610C22426183615D
:1002BC00C36101F02FFA00B908BDFFF791FF00BF31
:1002CC00280000200038014010B594B00AAC282258
:1002DC000021204601F073FA00230593069307933F
:1002EC0008930993019302930393049302230A93B3
:1002FC0001230E9310230F93204600F043FCA0B96A
:10030C000F2305930021069107910891099105A8E7
:10031C0000F06AFE58B9022301930023039301A84D
:10032C0000F03EFF28B914B010BDFFF759FFFFF7DE
:10033C0057FFFFF755FF000010B500F0E9FBFFF782
:10034C00C3FFFFF721FFFFF74DFFFFF777FFFFF725
:10035C00A1FF05E001224FF40051124801F01EF9F3
:10036C00114C204600F08AFA4FF0FF31204600F085
:10037C00DBF8204600F09AF9204600F07FFA4FF0A7
:10038C00FF31204600F0D0F8204600F08FF980B203
:10039C00B428DFD800224FF40051024801F0FEF8D7
:1003AC00DEE700BF00080140A0000020FEE7FEE7EA
:1003BC00FEE7FEE7FEE770477047704708B500F0B0
:1003CC00B9FB08BD82B00E4B9A6942F001029A61EA
:1003DC009A6902F001020092009ADA6942F08052A6
:1003EC00DA61DB6903F080530193019B054A536882
:1003FC0023F0E06343F08063536002B0704700BFAA
:10040C00001002400000014000B589B000230493A5
:10041C000593069307930368204A934205D0204A1C
:10042C0093421ED009B05DF804FB1E4B9A6942F44E
:10043C0000729A619A6902F400720092009A9A69A9
:10044C0042F004029A619B6903F004030193019B3F
:10045C00202304930323059304A9134800F098FF69
:10046C00E0E7104B9A6942F480629A619A6902F44F
:10047C0080620292029A9A6942F004029A619B6924
:10048C0003F004030393039B40230493032305937A
:10049C0004A9054800F07CFFC4E700BF002401401C
:1004AC0000280140001002400008014030B587B020
:1004BC00002302930393049305930268184B9A420A
:1004CC0001D007B030BD03F558439A6942F480421D
:1004DC009A619A6902F480420092009A9A6942F0F9
:1004EC0004029A619B6903F004030193019B4FF48E
:1004FC0000730293022303930323059302AD094C6B
:10050C002946204600F044FF4FF4806302930023F9
:10051C00039304932946204600F03AFFD1E700BF2D
:10052C000038014000080140F0B583B005460C4688
:10053C000023019300F00AFB2B689A6812F4807F69
:10054C0023D107465A6812F4807F03D1DB6A13F477
:10055C00700F29D0504B1E68022000F0ADFEB6FB88
:10056C00F0F62B6819694D4A114236D1D96802F15F
:10057C005C42114231D11969494A114240D1DA68C1
:10058C00484B1A423ED0292341E0AB6A43F020038A
:10059C00AB62002385F82430012003B0F0BD2B683A
:1005AC001B6813F0020F0FD02B681B6813F0020F9F
:1005BC004FD1B4F1FF3FF7D0002CF0D000F0C6FAC9
:1005CC00C31BA342F0D9EAE7AB6A43F00403AB6266
:1005DC00002385F824300320DFE71969304A1142E3
:1005EC0004D1D96802F16E4211420DD019692E4A1C
:1005FC000A405AB9DA682C4B13405BB1FC2306E075
:10060C00292304E0142302E0542300E0FC2303FB21
:10061C0006F607E05423FAE7019BB34210D3019B83
:10062C0001330193019BB34213D2B4F1FF3FF6D0D7
:10063C00002CF1D000F08AFAC01BA042EFD9EBE7F6
:10064C00AB6A43F00403AB62002385F8243003202B
:10065C00A3E72B686FF012021A60AB6A43F40073C5
:10066C00AB622B689B6803F46023B3F5602F01D059
:10067C00002092E7287B60B9AB6A23F48073AB62ED
:10068C00AB6A13F4805F88D1AB6A43F00103AB62B1
:10069C0083E7002081E700BF080000202449922452
:1006AC009224491292244900499224000368D86C80
:1006BC007047000030B482B00022019290F82420E0
:1006CC00012A00F08F800346012280F824204A681A
:1006DC00062A2DD80468606B02EB8202053A4FF0B3
:1006EC001F0C0CFA02FC20EA0C000D6805FA02F251
:1006FC00024362630A68092A38D91C68E06802EB75
:10070C0042021E3A4FF0070C0CFA02FC20EA0C00D5
:10071C008D6805FA02F20243E2600A68103A012A77
:10072C0034D90020002283F8242002B030BC70475A
:10073C000C2A0DD80568286B02EB8202233A1F2481
:10074C00944020EA04000C68944020432863D1E7CD
:10075C000568E86A02EB8202413A1F24944020EAC1
:10076C0004000C6894402043E862C3E71C682069CD
:10077C0002EB42024FF0070C0CFA02FC20EA0C00D0
:10078C008D6805FA02F202432261C6E71A68164820
:10079C00824205D09A6A42F020029A620120C1E797
:1007AC00906810F4000F1BD1906840F4000090602A
:1007BC000A68102A01D00020B4E70C4A12680C49D0
:1007CC00A1FB0212920C02EB82025200019202E097
:1007DC00019A013A0192019A002AF9D10020A1E76D
:1007EC0000209FE70220A0E7002401400800002021
:1007FC0083DE1B4330B583B00023019303689A68F2
:10080C0012F0010F33D104469A6842F001029A604B
:10081C00184B1B68184AA2FB03239B0C019302E0A4
:10082C00019B013B0193019B002BF9D100F08EF948
:10083C00054623689B6813F0010F16D100F086F96A
:10084C00431B022BF5D923689B6813F0010FF0D1E1
:10085C00A36A43F01003A362E36A43F00103E3626B
:10086C00002384F82430012002E0002000E0002066
:10087C0003B030BD0800002083DE1B4390F8243009
:10088C00012B68D010B50446012380F82430FFF703
:10089C00B1FF00285BD1A36A23F4407323F001035A
:1008AC0043F48073A36223682C4A934227D0A26A34
:1008BC0022F48012A2625A6812F4806F05D0A26AE8
:1008CC0022F4405242F48052A262A26A12F4805F77
:1008DC002BD0E26A22F00602E262002284F8242085
:1008EC006FF002021A6023689A6802F46022B2F573
:1008FC00602F1DD09A6842F480129A602AE0A2F50B
:10090C008062526812F4702FD1D0A26A42F4801225
:10091C00A262134A526812F4806FD6D0A26A22F4F3
:10092C00405242F48052A262CFE70022E262D4E746
:10093C000A4A934204D09A6842F4A0029A6009E0F1
:10094C00A2F58062526812F4702FD3D1F3E7002322
:10095C0084F8243010BD0220704700BF00280140ED
:10096C000024014038B503689A6812F0010F01D1D8
:10097C00002038BD04469A6822F001029A6000F00B
:10098C00E5F8054623689B6813F0010F13D000F0BF
:10099C00DDF8431B022BF5D923689B6813F0010F7C
:1009AC00F0D0A36A43F01003A362E36A43F001039F
:1009BC00E3620120DDE70020DBE7000000287BD0AC
:1009CC0070B50446836A002B4DD02046FFF7CAFF52
:1009DC00A36A13F0100369D1002867D1A26A22F42C
:1009EC00885222F0020242F00202A2626268E169BD
:1009FC000A43217B42EA4102A568B5F5807F02D00B
:100A0C00012D36D01D46267D012E35D02668716805
:100A1C0021F46941294371602568AE68274931404A
:100A2C001143A960A168B1F5807F01D0012902D1E1
:100A3C002369013B1B052568E96A21F470010B430E
:100A4C00EB62236899681E4B0B409A4225D0A36A2F
:100A5C0023F0120343F01003A362E36A43F0010393
:100A6C00E362012027E0C36280F82430FFF7CCFC5E
:100A7C00ABE74FF48075C6E731B9A169013945EA96
:100A8C00413141F40065C1E7A16A41F02001A16246
:100A9C00E16A41F00101E162B8E70023E362A36A75
:100AAC0023F0030343F00103A36204E0A36A43F0C1
:100ABC001003A362012070BD01207047FDF7E1FF18
:100ACC00FE0E1FFF10B504460E4B1A784FF47A73C6
:100ADC00B3FBF2F30C4A1068B0FBF3F000F0BAFD74
:100AEC0068B90F2C01D901200AE0002221464FF0F1
:100AFC00FF3000F09FFD054B1C60002000E0012042
:100B0C0010BD00BF000000200800002004000020E1
:100B1C0008B5074A136843F010031360032000F074
:100B2C0077FD0F20FFF7CEFFFFF74CFC002008BD30
:100B3C0000200240034A1168034B1B780B441360DE
:100B4C00704700BFD000002000000020014B186847
:100B5C00704700BFD000002082B0084B1B68084AC9
:100B6C00A2FB03235B0A00FB03F3019300BF019B71
:100B7C005A1E0192002BF9D102B0704708000020D8
:100B8C00D34D6210002800F0F18170B582B004469C
:100B9C00036813F0010F2CD0994B5B6803F00C0326
:100BAC00042B1DD0964B5B6803F00C03082B12D062
:100BBC006368B3F5803F41D0002B55D103F18043DE
:100BCC0003F504331A6822F480321A601A6822F48E
:100BDC0080221A6037E08A4B5B6813F4803FE7D0C1
:100BEC00874B1B6813F4003F03D06368002B00F0A5
:100BFC00BF81236813F0020F75D0814B5B6813F033
:100C0C000C0F5FD07E4B5B6803F00C03082B54D0A9
:100C1C002369002B00F08A807A4B01221A60FFF7BF
:100C2C0095FF0546764B1B6813F0020F75D1FFF745
:100C3C008DFF401B0228F5D903209EE1704A1368F2
:100C4C0043F480331360636843B3FFF77FFF0546BB
:100C5C006B4B1B6813F4003FCBD1FFF777FF401BA6
:100C6C006428F5D9032088E1B3F5A02F09D0644B93
:100C7C001A6822F480321A601A6822F480221A60F0
:100C8C00E1E703F18043A3F53C331A6842F4802278
:100C9C001A601A6842F480321A60D4E7FFF756FFE4
:100CAC000546574B1B6813F4003FA2D0FFF74EFFCD
:100CBC00401B6428F5D903205FE1514B5B6813F4AA
:100CCC00803FA5D14E4B1B6813F0020F03D0236954
:100CDC00012B40F04F814A4A136823F0F8036169F5
:100CEC0043EAC1031360236813F0080F33D0A369E0
:100CFC00002B5CD0434B0122C3F88024FFF726FF66
:100D0C0005463F4B5B6A13F0020F21D1FFF71EFF24
:100D1C00401B0228F5D903202FE1394A136823F030
:100D2C00F803616943EAC1031360DCE7354B002229
:100D3C001A60FFF70BFF0546314B1B6813F0020FCF
:100D4C00D1D0FFF703FF401B0228F5D9032014E193
:100D5C000120FFF701FF236813F0040F00F09680C9
:100D6C00274BDB6913F0805F34D1254BDA6942F0F5
:100D7C008052DA61DB6903F080530193019B0125FA
:100D8C00214B1B6813F4807F26D0E368012B3DD0E8
:100D9C00002B53D103F1804303F504331A6A22F07C
:100DAC0001021A621A6A22F004021A6233E0154B2D
:100DBC000022C3F88024FFF7C9FE0546104B5B6A7E
:100DCC0013F0020FC7D0FFF7C1FE401B0228F5D964
:100DDC000320D2E00025D3E70B4A136843F4807359
:100DEC001360FFF7B3FE0646074B1B6813F4807FB6
:100DFC00CBD1FFF7ABFE801B6428F5D90320BCE0F8
:100E0C000010024000004242007000405F4A136A2A
:100E1C0043F001031362E36833B3FFF797FE064612
:100E2C005A4B1B6A13F0020F2FD1FFF78FFE801B5A
:100E3C0041F288339842F3D903209EE0052B09D068
:100E4C00524B1A6A22F001021A621A6A22F0040248
:100E5C001A62E0E74D4B1A6A42F004021A621A6AEF
:100E6C0042F001021A62D6E7FFF770FE0646474BC6
:100E7C001B6A13F0020F08D0FFF768FE801B41F2CB
:100E8C0088339842F3D9032077E0E5B9E369002B66
:100E9C0072D03E4A526802F00C02082A56D0022B3D
:100EAC0017D03B4B00221A66FFF750FE0446374B17
:100EBC001B6813F0007F47D0FFF748FE001B022889
:100ECC00F5D9032059E0314AD36923F08053D3611B
:100EDC00DCE72F4B00221A66FFF738FE05462B4B3A
:100EEC001B6813F0007F06D0FFF730FE401B022872
:100EFC00F5D9032041E0236AB3F5803F1AD023498A
:100F0C004B6823F47413226A606A024313434B60E8
:100F1C001F4B01221A66FFF719FE04461B4B1B6878
:100F2C0013F0007F0ED1FFF711FE001B0228F5D93C
:100F3C00032022E0154A536823F40033A1680B43C5
:100F4C005360DCE7002018E0002016E0012B16D0DF
:100F5C000E4B5B6803F48031226A914211D103F489
:100F6C007013626A93420ED1002006E00120704794
:100F7C00012002E0012000E0002002B070BD012041
:100F8C00FBE70120F9E70120F7E700BF0010024062
:100F9C00000042420F4B5B6803F00C02082A01D0A0
:100FAC000D487047C3F383420C49885C13F4803FAF
:100FBC000BD0084B5B68C3F34043094AD35C064A29
:100FCC0002FB00F0B0FBF3F07047064B03FB00F0A4
:100FDC00704700BF0010024000127A004018000851
:100FEC003C18000800093D00002800F0A08070B5F6
:100FFC000D460446524B1B6803F007038B420BD281
:10100C004F4A136823F007030B431360136803F074
:10101C0007038B4240F08D80236813F0020F17D02A
:10102C0013F0040F04D0474A536843F4E063536051
:10103C00236813F0080F04D0424A536843F46053FA
:10104C005360404A536823F0F003A1680B4353608C
:10105C00236813F0010F31D06368012B20D0022BD1
:10106C0025D0384A126812F0020F64D035494A680C
:10107C0022F0030213434B60FFF768FD0646314B29
:10108C005B6803F00C036268B3EB820F16D0FFF7BA
:10109C005DFD801B41F288339842F0D9032045E076
:1010AC00284A126812F4003FE0D101203EE0254AA4
:1010BC00126812F0007FD9D1012037E0204B1B6859
:1010CC0003F00703AB420AD91D4A136823F0070348
:1010DC002B431360136803F00703AB422DD1236835
:1010EC0013F0040F06D0174A536823F4E063E16849
:1010FC000B435360236813F0080F07D0114A536851
:10110C0023F46053216943EAC1035360FFF742FFA4
:10111C000C4B5B68C3F303130B4AD35CD8400B4BEB
:10112C0018600B4B1868FFF7CDFC002070BD012038
:10113C0070470120FAE70120F8E70120F6E700BF2D
:10114C0000200240001002406C180008080000202B
:10115C0004000020014B1868704700BF08000020F5
:10116C0008B5FFF7F7FF044B5B68C3F30223034A90
:10117C00D35CD84008BD00BF0010024064180008C2
:10118C0008B5FFF7E7FF044B5B68C3F3C223034AC0
:10119C00D35CD84008BD00BF0010024064180008A2
:1011AC0070B582B00446036813F0010F36D03F4B84
:1011BC00DB6913F0805F4AD13C4BDA6942F0805214
:1011CC00DA61DB6903F080530193019B0125384BF5
:1011DC001B6813F4807F3CD0344B1B6A13F44073B0
:1011EC0013D0626802F440729A420ED02F4A136AEE
:1011FC0023F440702F490126C1F840640026C1F841
:10120C004064106213F0010F37D1284A136A23F49B
:10121C00407361680B431362002D3FD1236813F0B8
:10122C00020F06D0214A536823F44043A1680B43B4
:10123C005360236813F0100F35D01C4A536823F405
:10124C008003E1680B435360002002B070BD0025A1
:10125C00BDE7174A136843F480731360FFF776FCFD
:10126C000646134B1B6813F4807FB5D1FFF76EFC59
:10127C00801B6428F5D90320E7E7FFF767FC0646D7
:10128C000A4B1B6A13F0020FBFD1FFF75FFC801BE8
:10129C0041F288339842F3D90320D6E7D36923F07F
:1012AC008053D361BAE70020CFE700BF00100240A3
:1012BC00007000400000424208B502284ED01028B1
:1012CC0003D0012828D0002052E02B4B5A68186814
:1012DC0010F080704CD0C2F383432849C85C12F4E0
:1012EC00803F15D0244B5B68C3F34043244AD25C47
:1012FC00244BB3FBF2F303FB00F01F4B5B6813F4BE
:10130C00800F35D14000204BA3FB003040082FE06C
:10131C001E4B03FB00F0F0E7174B1B6A40F2023246
:10132C001A40B2F5817F24D003F44073B3F5007FEB
:10133C0004D0B3F5407F09D0002019E00E4A526A60
:10134C0012F0020FF5D049F6404011E00A4B186834
:10135C0010F400300CD04FF2244009E0FFF710FFDE
:10136C00054B5B68C3F3813301335B00B0FBF3F0D7
:10137C0008BD4FF40040FBE7001002405418000871
:10138C005018000800127A00ABAAAAAA00093D0066
:10139C0070B582B00024A44692E07A4DAB4214D0D2
:1013AC000CD8A5F58015AB420FD005F57025AB42D6
:1013BC000BD0A5F58015AB421FD106E0724DAB42A8
:1013CC0003D005F58035AB4217D18B68A3B1012B47
:1013DC000DD04261082410E0CC680EE0CC680434D7
:1013EC000BE0CC68083408E0CC680C3405E00261F2
:1013FC00082402E0002400E00424BEF1FF0F00F2F8
:10140C009B8006464FEA8C0233680F25954023EAF1
:10141C00050304FA02F2134333604B6813F0805F48
:10142C004CD05A4B9A6942F001029A619B6903F0C5
:10143C0001030193019B4FEA9C02951C544B53F8FA
:10144C0025600CF00305AD000F23AB4026EA030624
:10145C00504B984277D003F58063984275D003F5D2
:10146C00806398426DD00323AB4033430232484D26
:10147C0045F822304B6813F4801F68D0464A9368B5
:10148C0043EA0E0393604B6813F4001F65D0424A85
:10149C00D36843EA0E03D3604B6813F4003F62D069
:1014AC003D4A536843EA0E0353604B6813F4803F84
:1014BC005FD0394A136843EA0E0313600CF1010C38
:1014CC000B6833FA0CF25AD0012202FA0CF203EA3E
:1014DC00020E32EA0303F1D14B68122B3FF65DAFDB
:1014EC00122B8AD801A555F823F000BFD71300089A
:1014FC00E5130008EF130008011400080714000896
:10150C000714000807140008071400080714000843
:10151C000714000807140008071400080714000833
:10152C000714000807140008071400080714000823
:10153C00E9130008F5130008061DACF1080292002F
:10154C0062E7022390E700238EE701238CE7124A1F
:10155C00936823EA0E03936095E70F4AD36823EA56
:10156C000E03D36098E70C4A536823EA0E035360CA
:10157C009BE7094A136823EA0E0313609EE702B047
:10158C0070BD00BF0000221000003110001002409E
:10159C000000014000080140000401400AB1016153
:1015AC007047090401617047002808DB0901C9B2C2
:1015BC0000F1604000F5614080F80013704700F0C6
:1015CC000F000901C9B2014B1954704714ED00E02A
:1015DC0000B500F00700C0F1070CBCF1040F28BFE8
:1015EC004FF0040C031D062B0FD9C31E4FF0FF3E0A
:1015FC000EFA0CF021EA000199400EFA03FE22EAE1
:10160C000E0241EA02005DF804FB0023EEE7000045
:10161C00074AD36823F4E0631B041B0C000200F49C
:10162C00E060034343F0BF6343F40033D36070477F
:10163C0000ED00E010B50446054BD868C0F302205D
:10164C00FFF7C6FF01462046FFF7AEFF10BD00BFF7
:10165C0000ED00E00138B0F1807F0BD24FF0E023B9
:10166C005861054AF02182F8231000209861072266
:10167C001A6170470120704700ED00E070470000D0
:10168C0010B504460268136923F44053C1680B4338
:10169C00136183680269134342691A430168CB687A
:1016AC0023F4B05323F00C031343CB60026853694B
:1016BC0023F4407381690B4353610268134B9A42C4
:1016CC0020D0FFF74DFD024602EB820202EB8202B4
:1016DC0063689B00B2FBF3F20D48A0FB0231490991
:1016EC00642303FB11231B013233A0FB03035B09AF
:1016FC0003F0F00202EB011203F00F032168134414
:10170C008B6010BDFFF73CFD0246DDE70038014061
:10171C001F85EB5160B310B5044690F8413013B3FC
:10172C00242384F841302268D36823F40053D36017
:10173C002046FFF7A5FF2268136923F49043136139
:10174C002268536923F02A0353612268D36843F457
:10175C000053D36000206064202384F8413084F867
:10176C004230606310BD80F84030FEF79FFED7E733
:10177C0001207047FFF782FF0B480C490C4A0023ED
:10178C0002E0D458C4500433C4188C42F9D3094A2B
:10179C00094C002301E013600432A242FBD300F099
:1017AC0017F8FEF7C9FD7047000000200C00002060
:1017BC00841800080C000020D4000020FEE703462B
:1017CC000244934200D1704703F8011BF9E7000073
:1017DC0070B500260C4D0D4B5B1B9C10A64209D11D
:1017EC00002600F019F80A4D0A4B5B1B9C10A64210
:1017FC0005D170BD55F8043B98470136EEE755F816
:10180C00043B98470136F2E77C1800087C18000866
:10181C007C18000880180008F8B500BFF8BC08BC9C
:10182C009E467047F8B500BFF8BC08BC9E46704792
:10183C000102000002030405060708090A0B0C0D3F
:10184C000E0F101001020000020304050607080920
:10185C000A0B0C0D0E0F1010000000000102030407
:10186C000000000000000000010203040607080944
:04187C0075010008EA
:041880004D0100080E
:0C188400010000001000000000127A00BB
:040000050800178157
:00000001FF
